:100000000C945C030C94A3030C94A3030C94A3031F
:100010000C94A3030C94A3030C94A3030C94A303C8
:100020000C94A3030C94A3030C944A1D0C941D1E62
:100030000C94BE140C94A3030C94A3030C94A3037C
:100040000C94A3030C94A3030C94A3030C94A30398
:100050000C94A3030C9426150C94A3030C94A303F3
:100060000C94A3030C94A3030C94A3030C94A30378
:100070000C94A3030C94A3030C94A3030C94A30368
:100080000C94A3030C94A3030C94A3030C94A30358
:100090000C94A3030C94A3030C94A3030C94A30348
:1000A0000C94A3030C94A3030C94A30349004A00EB
:1000B0004B0053005400550056004C004D004E00BC
:1000C0005F006000610057000000000000005C005D
:1000D0005D005E00000000005200000059005A0060
:1000E0005B005800500051004F00620000006300A8
:1000F00000000100010001000100010001000100F9
:1001000001000100010001000100010001000000E8
:1001100000000000010001000100000000000100DB
:1001200000000100010001000100010001000100C8
:1001300001000000010000000100010001000100B9
:1001400001000100010001000100010001000100A7
:10015000010001000000000000000100010001009A
:10016000000000000100000001000100010001008A
:100170000100010001000100000001000000010079
:100180000100010001000100010001000100010067
:10019000010001000100010001000000000000005A
:1001A000010001000100000000000100000001004A
:1001B0000100010001000100010001000100000038
:1001C0000100000001000100010001000100010028
:1001D0000100010001000100010001000100010017
:1001E000000000000000010001000100000000000C
:1001F00001000000010001000100010001000100F8
:1002000001000100000001000000010001000100E8
:1002100001000100010001000100010001000100D6
:1002200001000100010000000000000001000100C9
:1002300001000000000001000000010001000100B9
:1002400001000100010001000100000001000000A8
:100250000100010001000100010001000100010096
:100260000100010001000100010001000000000088
:10027000000001000100010000000000010000007A
:100280000100010001000100010001000100010066
:100290000000010000000100010001000100010058
:1002A0000100010001000100010001000100010046
:1002B000010000000000000001000100010000003A
:1002C0000000010000000100010001000100010028
:1002D0000100010001000000010000000100010018
:1002E0000100010001000100010001000100010006
:1002F00001000100010001000000000000000100F9
:1003000001000100000000000100000001000100E8
:1003100001000100010001000100010000000100D6
:1003200000000100010001000100010001000100C6
:1003300001000100010001000100010001000000B6
:1003400000000000010001000100000000000100A9
:100350000000010001000100010001000100010096
:100360000100000001000000010001000100010087
:100370000100010001000100010001000100010075
:100380000100010000000000000001000100010068
:100390000000000001000000010001000100010058
:1003A0000100010001000100000001000000010047
:1003B0000100010001000100010001000100010035
:1003C0000100010001000100010000000000000028
:1003D0000100010001000000000001000000010018
:1003E0000100010001000100010001000100000006
:1003F00001000000010001000100010001000100F6
:1004000001000100010001000100010001000100E4
:1004100000000000000001000100010000000000D9
:1004200001000000010001000100010001000100C5
:1004300001000100000001000000010001000100B6
:1004400001000100010001000100010001000100A4
:100450000100010001000000000000000100010097
:100460000100000000000100000001000100010087
:100470000100010001000100010000000100000076
:100480000100010001000100010001000100010064
:100490000100010001000100010001000000000056
:1004A0000000010001000100000000000100000048
:1004B0000100010001000100010001000100010034
:1004C0000000010000000100010001000100010026
:1004D0000100010001000100010001000100010014
:1004E0000100000000000000010001000100000008
:1004F00000000100000001000100010001000100F6
:1005000001000100010000000100000012036B0067
:100510006500790062006F006100720064000000F5
:10052000160371006D006B006200750069006C00BD
:1005300064006500720000000403090409026D00F4
:10054000040100A0FA0904000001030101000921CF
:10055000110100012240000705810308000A090477
:1005600001000103010200092111010001224D00D7
:100570000705820308000A090402000103000000C5
:100580000921110100012236000705830308000A32
:1005900009040300010300000009211101000122E8
:1005A000390007058403200001120110010000003A
:1005B00008EDFE606001000102000105010906A1CD
:1005C00001050719E029E715002501950875018146
:1005D0000205081901290595057501910295017516
:1005E0000391010507190029F71500250195F875F4
:1005F000018102C005010980A101850216010026C2
:1006000003001A81002A8300751095018100C0053E
:100610000C0901A1018503160100269C021A0100A4
:100620002A9C02751095018100C005010902A101F3
:100630000901A100050919012905150025019505E4
:1006400075018102950175038101050109300931A8
:100650001581257F95027508810609381581257F4A
:10066000950175088106050C0A38021581257F95CC
:100670000175088106C0C005010906A10105071919
:10068000E029E7150025019508750181029501759E
:100690000881010508190129059505750191029543
:1006A00001750391010507190029FF150026FF00B8
:1006B000950675088100C00011241FBECFEFDAE057
:1006C000DEBFCDBF04B603FE27C080911E0290910D
:1006D0001F02A0912002B09121028730904BA740C9
:1006E000B04BD1F410921E0210921F021092200201
:1006F0001092210214BE84B7877F84BF0FB6F8948E
:10070000A8958091600088618093600010926000DD
:100710000FBEE0E0F8E3099511E0A0E0B1E0E2EC03
:10072000F2E402C005900D92A433B107D9F722E09C
:10073000A4E3B1E001C01D92AE31B207E1F70E941F
:10074000991A0C945F210C94000090E080E00895C9
:100750000895089581E00895089581E008950C9426
:10076000AA030E94380D2FEF84E39CE021508040C3
:100770009040E1F700C000000C944B15FF920F93DE
:100780001F93CF93DF938C01FC01C081D1818091B5
:100790005F0181113FC082818823B9F1CE010E949F
:1007A0009F12F82E682FCE010E944512BE018F2D98
:1007B0000E940505EC01B8010E94AF03882309F4EB
:1007C0004AC0B801CE010E941507882309F443C02E
:1007D000C531F0E7DF0718F5C23080E7D80708F029
:1007E0004BC0C115E0E7DE0789F1C130D047D1F138
:1007F00081E08093360180933701C801DF91CF916A
:100800001F910F91FF900C94AD03CE010E947412C2
:10081000F82ECCCFCE010E949F12BE01C9CFCC339F
:1008200080E7D80709F4ACC0CD33D04709F7F80109
:100830008281882309F4CBC0109237010E94F01402
:10084000909335018093340180E2A7C0F801828142
:1008500081110E94B10380E0DF91CF911F910F9130
:10086000FF900895F80182818823A9F38091DE0129
:1008700081608093DE01EFCFF8018281882309F443
:10088000BCCF0E945014811102C00E9436140E94F5
:100890006D1490E09093100280930F02FE01E350DC
:1008A000F04780910F028160E231F105C8F4E55A0A
:1008B000FB4F0C940F216D0479047D0481048504A1
:1008C00089048D049104950499049D04A104A50450
:1008D000A904AD04B104B504B90480910F0282608B
:1008E00080930F0280910F020E9471140E94380DB4
:1008F000B2CF80910F028460F3CF80910F028860A5
:10090000EFCF80910F028061EBCF80910F02806268
:10091000E7CF80910F028064E3CF80910F0280685F
:10092000DFCF80910F028460EACF80910F028E7F2B
:10093000D7CF80910F028D7FD3CF80910F028B7F15
:10094000CFCF80910F02877FCBCF80910F028F7E18
:10095000C7CF80910F028F7DC3CF80910F028F7B15
:10096000BFCF80910F028F77BBCF80910F028B7F1B
:10097000EACF90910F02892F97FB87F98058B0CF6B
:10098000F8018281882361F0109236010E94F014F0
:10099000909335018093340182E00E94C20A5BCFBC
:1009A0008091360181110FC0809134019091350101
:1009B0000E94FC14883C910530F486E20E9497095D
:1009C00086E20E94730A82E00E94C90A44CF8091A5
:1009D000370181110FC080913401909135010E943F
:1009E000FC14883C910530F487E20E94970987E265
:1009F0000E94730A80E2E8CF0C9464070C946607A7
:100A00000C94AC030C9400050895972F70E027E038
:100A1000929F600D711D1124FB0193E2899FE00DEF
:100A2000F11D1124EE0FFF1FE455FF4F85919491A6
:100A30000895FC01EE0FFF1FE45FFA4F859194913A
:100A400008950E9405050E949406811520E49207EE
:100A500008F08DC0811540E3940708F0E8C0803E9F
:100A6000910508F071C0803C910508F0CCC0883A2F
:100A7000910580F4853A910508F0CAC0813091054E
:100A800009F46EC020F08430910508F069C090E050
:100A900080E008958D3B9105D0F7883A910509F4DF
:100AA00004C1893A910509F403C18A3A910509F410
:100AB00002C18B3A910509F401C18C3A910509F400
:100AC00000C18B3B910509F4FFC08C3B910509F4F3
:100AD000FEC08D3A910509F4FDC0803B910509F4F3
:100AE000FCC08E3A910509F4FBC08F3A910509F4D8
:100AF000FAC0813B910509F4F9C0823B910509F4E4
:100B0000F8C0833B910509F4F7C0843B910509F4D3
:100B1000F6C0853B910509F4F5C0863B910509F4C3
:100B2000F4C0873B910509F4F3C0883B910509F4B3
:100B3000F2C0893B910509F4F1C08A3B910509F4A3
:100B4000F0C080E094E408958F3F910509F048F4E7
:100B5000803F910508F067C0883E910508F097CF67
:100B60000895811520E2920708F05FC0089581156D
:100B700043E5940760F5811522E5920708F062C00D
:100B8000811541E5940708F058C0811520E59207CA
:100B900008F450C09C0154E0369527955A95E1F72A
:100BA000922F9370482F437021E030E002C0220F53
:100BB000331F4A95E2F73C68392B869586958370FA
:100BC00040E2849FC0011124822B932B089581154C
:100BD00045E5940750F4811524E5920708F446C0D2
:100BE000982F8827846F906A0895811546E59407A9
:100BF00008F450C09C0130569F702115304108F018
:100C000046CF90620895805C91090E94190508956D
:100C1000853A910509F443C0863A910509F042C02E
:100C200082E890E40895906508959F70EECF99272B
:100C3000906C08959F70906A0895982F8827816F0F
:100C4000906A0895AC014370552721E030E002C05E
:100C5000220F331F4A95E2F78695869540E2849FDE
:100C6000C0011124822B932B9C680895AC01437022
:100C7000552721E030E002C0220F331F4A95E2F7EA
:100C80008695869540E2849FC0011124822B932B88
:100C90009A680895982F882788279F71B2CF81E896
:100CA00090E4089583E890E4089582EE94E4089532
:100CB00089EE94E408958AEE94E4089585EB94E433
:100CC000089586EB94E4089583EB94E4089584EB0F
:100CD00094E4089587EB94E408958CEC94E40895EB
:100CE0008DEC94E4089583E895E408958AE895E40A
:100CF000089582E995E4089584E995E4089581E2F0
:100D000096E4089583E296E4089584E296E40895D3
:100D100085E296E4089586E296E4089587E296E4F3
:100D200008958AE296E41CCF8238910549F1B0F427
:100D30008133910509F45CC048F48932910509F4C6
:100D400052C08A32910509F458C00895853391053F
:100D500009F444C08933910599F00895833E9105C3
:100D600031F138F4803E910591F0823E9105B1F069
:100D70000895863E910511F1873E910541F1089550
:100D800020910F022370C9F080EE90E00895209129
:100D90000F0220FF12C089E390E0089520910F0216
:100DA00022FF0BC024FF2EC090E080E00895209128
:100DB0000F0222FD2AC024FDF7CF089520910F02D3
:100DC00023FFFBCF24FDF0CF87EE90E00895209124
:100DD0000F0223FFF0CF86EE90E0089520910F02DE
:100DE00025FD16C0089520910F0225FD14C0089519
:100DF00020910F0226FD12C0089520910F0226FDBA
:100E000010C0089583EE90E0089582EE90E008957A
:100E100089E290E0089585E390E008958AE290E009
:100E2000089581E390E0C9CF08950F931F93CF9366
:100E30008C01FB018281811106C0C1E08C2FCF9112
:100E40001F910F910895C0914501C11125C0053131
:100E5000104799F70E94140781E0809345010E9492
:100E6000F014909344018093430110923801109242
:100E70003A011092390110923C0110923B011092FC
:100E80003E0110923D011092400110923F011092DC
:100E9000420110924101D2CF8091430190914401CF
:100EA0000E94FC14883C910540F680913801E82F9F
:100EB000F0E0EE0FFF1FE75CFE4F118300838F5FB2
:100EC00080933801C0E0BACF0C94A8030C94A90316
:100ED000CF93DF9385B7806885BF85B7806885BF6E
:100EE000AAE1B1E04FE151E0C1E0D0E08D91E82FFF
:100EF000E295EF70F0E061A18F709E0101C0220FBA
:100F00008A95EAF7922F9095962391A382A1822B3E
:100F100082A34A175B0751F7A3E1B1E061E070E0FB
:100F20008D91E82FE295EF70F0E041A18F709B0169
:100F300001C0220F8A95EAF7922F9095942391A3EE
:100F400082A1822B82A381E0AA31B80749F71092CF
:100F50004B011092460110924C01109247011092E1
:100F60004D011092480110924E01109249011092C9
:100F70004F0110924A01DF91CF910C94FC046F92C3
:100F80007F929F92AF92BF92CF92DF92EF92FF92A9
:100F90000F931F93CF93DF93C6E4D1E00AE111E0F2
:100FA000EE24E394F12CDD24D39478811882D801C7
:100FB0008D918D01E82FE295EF70F0E091A18F7097
:100FC000A70101C0440F8A95EAF7892F842B81A3DA
:100FD00082A1942E9094892182A3B0EABA95F1F768
:100FE00033E1632E31E0732E90E080E0D3013D9138
:100FF0003D01A32EA2942FE0A222B12CD501909600
:10100000CC9068813F70D70102C0AA0FBB1F3A95F0
:10101000E2F79D012C2109F056C02E2D082E01C0AB
:10102000220F0A94EAF7262B288301968730910530
:10103000E9F681A1892181A382A1842B82A38881E1
:10104000781741F0D09250010E94F0149093520111
:10105000809351012196B1E00F311B0709F0A5CF14
:10106000809150018823F1F08091510190915201BB
:101070000E94FC140697B0F08091460180934B01CA
:101080008091470180934C018091480180934D01EC
:101090008091490180934E0180914A0180934F01D4
:1010A000109250010E94FE0481E0DF91CF911F91C8
:1010B0000F91FF90EF90DF90CF90BF90AF909F90F7
:1010C0007F906F90089520E0AECFE82FF0E0E55BD1
:1010D000FE4F8081089508959093580180935701A1
:1010E0000895E0915701F0915801309721F0019057
:1010F000F081E02D099480E00895E0915701F0918E
:101100005801309721F00280F381E02D0994089571
:10111000E0915701F0915801309721F00480F5815A
:10112000E02D09940895209155013091560128171A
:10113000390771F09093560180935501E091570162
:10114000F0915801309721F00680F781E02D099445
:10115000089520915301309154012817390771F0F7
:101160009093540180935301E0915701F0915801FD
:10117000309721F00084F185E02D099408950895B9
:101180000C94BF080E94E7140E9468070C94B015E5
:10119000BF92CF92DF92EF92FF920F931F93CF9364
:1011A000DF93CDB7DEB72A970FB6F894DEBF0FBE38
:1011B000CDBF0E94BF078AE5C82E81E0D82E10E07F
:1011C00000E0B02E802F0E946508E82EF601F19015
:1011D0006F01F81609F45AC08091DE0181FD0E946A
:1011E0006B0890E080E0FE242F2D30E0482FB901FD
:1011F000082E02C0759567950A94E2F760FF41C01A
:101200008E83BF8281E090E06C0102C0CC0CDD1CBB
:101210004A95E2F72E2D30E02C213D21232B09F4B5
:1012200080E088870E94F0148160782F9A878987F0
:101230004E815F8168858A850E946D09F801E65AB2
:10124000FE4F80818C2580830E9433180E94710894
:1012500090915901891789F10E9471088093590171
:101260002A960FB6F894DEBF0FBECDBFDF91CF91A7
:101270001F910F91FF90EF90DF90CF90BF900C9453
:10128000020501968730910509F0B0CF0F5F1F4F1F
:101290000530110509F095CF8FEF89838A831B8272
:1012A0000E94F0148160782F9D838C8349815A813C
:1012B0006B818D810E946D09C7CF2A960FB6F89475
:1012C000DEBF0FBECDBFDF91CF911F910F91FF9079
:1012D000EF90DF90CF90BF900895CF93DF93CDB77D
:1012E000DEB72B970FB6F894DEBF0FBECDBF4F838E
:1012F000588769877A878B871E821D8285E0FE0169
:101300003796DE01119601900D928A95E1F7498199
:101310005A816B817C818D819E812B960FB6F894CA
:10132000DEBF0FBECDBFDF91CF910C94EA0F8823B3
:1013300009F4D8C0823871F40E94710881FDD2C0CE
:1013400089E30E943F130E94071489E30E947C13E3
:101350000C940714833859F40E94710880FDC2C0B0
:1013600083E50E943F130E94071483E5EFCF843882
:1013700059F40E94710882FDB5C087E40E943F13B2
:101380000E94071487E4E2CF9CEF980F913A18F47B
:101390000E943F13DDCF90E2980F983050F4877091
:1013A00091E001C0990F8A95EAF7892F0E94BE1338
:1013B000CFCF9BE5980F933070F4853A31F0863AA1
:1013C00039F083E890E00C94930881E890E0FBCF3B
:1013D00082E890E0F8CF98E5980F953108F082C048
:1013E000883A09F440C0893A09F440C08A3A09F4BD
:1013F00040C08B3A09F440C08C3A09F440C08B3BA2
:1014000009F440C08C3B09F440C08D3A09F440C057
:10141000803B09F440C08E3A09F440C08F3A09F489
:1014200040C0813B09F440C0823B09F440C0833B8B
:1014300009F440C0843B09F440C0853B09F440C036
:10144000863B09F440C0873B09F440C0883B09F45F
:1014500040C0893B09F440C08A3B09F440C090E099
:1014600080E00C94A90882EE90E0FBCF89EE90E03A
:10147000F8CF8AEE90E0F5CF85EB90E0F2CF86EBE7
:1014800090E0EFCF83EB90E0ECCF84EB90E0E9CFFE
:1014900087EB90E0E6CF8CEC90E0E3CF8DEC90E032
:1014A000E0CF83E891E0DDCF8AE891E0DACF82E90E
:1014B00091E0D7CF84E991E0D4CF81E292E0D1CF1F
:1014C00083E292E0CECF84E292E0CBCF85E292E05D
:1014D000C8CF86E292E0C5CF87E292E0C2CF8AE22F
:1014E00092E0BFCF0895882309F44BC0823871F48D
:1014F0000E94710881FF45C089E30E943F130E944A
:10150000071489E30E947C130C940714833859F460
:101510000E94710880FF35C083E50E943F130E943E
:10152000071483E5EFCF843859F40E94710882FFD5
:1015300028C087E40E943F130E94071487E4E2CF8B
:101540009CEF980F913AF0F290E2980F983050F497
:10155000877091E001C0990F8A95EAF7892F0E9460
:10156000C413D2CF9BE5980F933020F490E080E035
:101570000C949308885A853120F490E080E00C9414
:10158000A9080895882321F00E94BE130C94071423
:101590000895882321F00E94C4130C940714089521
:1015A0008F929F92AF92BF92DF92EF92FF920F9332
:1015B0001F93CF93DF937C01D62FC72FFC010581AA
:1015C00002950F70128111110E94DD130E943813D1
:1015D000D82E882371F0112321F180E28D0F8830FD
:1015E00000F182E00E9422130E94381391E0D82E6D
:1015F000D926EC2FE295EF70F0E0EF5FF44F0C94FA
:101600000F21130B130B630B630BA50BC10B400BCB
:10161000400BCC0B400B640C640CD70C400B400B04
:10162000E00CD12CE6CF0C2F0F70C07F11F002958B
:10163000007F1123A9F0002359F080E28D0F88303C
:1016400010F0D11109C0802F0E94BE130E94071410
:101650008D2F0E94970914C0802F0E94CF13F6CFC0
:101660008D2F0E94730A002359F080E28D0F88307D
:1016700010F0D11124C0802F0E94C4130E940714BF
:10168000DD2009F4A4C10E94151380FDA0C1F7015B
:1016900012820E940F130E948911C7010E94F30C4D
:1016A0000E940F13DF91CF911F910F91FF90EF9048
:1016B000DF90BF90AF909F908F900C94AA11802FD5
:1016C0000E94D513DBCFFC2FFF70BF2EC07FC0322E
:1016D00019F0B29480EFB822DD2369F0D13029F1FE
:1016E000112369F1002359F0F701858180FFB0CF04
:1016F0008F70858304C0112361F0011104C08B2D0C
:101700000E94C20ABDCF8B2D0130D1F70E94F11388
:10171000B7CF011106C00E94F4138B2D0E94C90A95
:10172000AFCF013009F4ACCFF6CF112321F0063052
:1017300008F0A6CFE4CF053008F0A2CFEECF00230B
:1017400061F38D2F0E94730A9BCF8C2F869586950F
:10175000837069F0813009F093CF8D2F9C2F9370A7
:10176000111102C090E080E00E94A90889CF8D2F5E
:101770009C2F9370111102C090E080E00E949308AA
:101780007FCF8D2F112329F00E943C170E9428182B
:1017900077CF0E94A417FACF8C2F837009F047C02F
:1017A00011116ECF2D2F229526952770220F220F13
:1017B0006D2F6F70862E912CB12CA12C022E04C09F
:1017C000880C991CAA1CBB1C0A94D2F760E070E03C
:1017D000CB01D4FF0FC06FE070E080E090E004C068
:1017E000660F771F881F991F2A95D2F7609570950D
:1017F00080959095C695C695C370C23051F080F41F
:10180000682979298A299B29C13071F00E943211F7
:1018100037CF682979298A299B290E944E1130CF18
:101820000E943211C501B4010E94161129CF86957C
:10183000112311F08C2F8170882309F421CF2D2FD3
:10184000229526952770220F220F6D2F6F70862EFE
:10185000912CB12CA12C022E04C0880C991CAA1C1E
:10186000BB1C0A94D2F760E070E0CB01D4FF0FC03C
:101870006FE070E080E090E004C0660F771F881F83
:10188000991F2A95D2F76095709580959095C69589
:10189000C695C370C23051F080F4682979298A292D
:1018A0009B29C13071F00E940C12EACE6829792977
:1018B0008A299B290E942812E3CE0E940C12C5019E
:1018C000B4010E94F011DCCEE0E2ED0FE53108F04A
:1018D00062C0F0E0E259F34F0C940F21830C830CAB
:1018E000830C830C830C830C830C830C830C830C80
:1018F000830C830C830C830C830C830C900C9E0C48
:10190000A50CAC0CB60CDF708C2F8F71112321F05D
:101910000E9489118D2FF4CE0E94AA118D2FFECE28
:10192000112341F0053008F0ABCE8C2F8F710E944F
:10193000CF11A6CE063008F0A3CEF7CF8C2F8F7133
:10194000112339F00E9489119BCE8C2F8F711123A6
:10195000C9F30E94AA1194CE112329F08C2F8F7104
:101960000E9474118DCE0E946A118ACE112349F013
:10197000CF718C2F0E94891163E08C2F0E94191364
:101980007FCE81E00E942213023008F479CE82E0FB
:101990000E94221375CE112329F0011159CE8C2FEC
:1019A0008F71D0CF0111CDCE8C2F8F71D2CF4C2F14
:1019B0004F706D2FC7010E94A5030E94931060CE47
:1019C0004C2F4F706D2FC7010E94040559CEDF9137
:1019D000CF911F910F91FF90EF90DF90BF90AF904C
:1019E0009F908F9008950F931F93CF93DF93EC01F7
:1019F000988189812B813C81232B39F08F3F19F409
:101A000081E09F3F19F080E001C081E080FD17C0B8
:101A1000CE010E94BE03882391F0688179818A817A
:101A20000E94EB128C010E9444120E940B11B8011B
:101A3000CE01DF91CF911F910F910C94D00ADF91CD
:101A4000CF911F910F9108950E94DD130E94EE1314
:101A50000E94B0130E9407140E94D5180E942818F3
:101A600090E080E00E94930890E080E00C94A90848
:101A70000E94CC130C94240D0E94E112E92FE295F0
:101A8000EF70E250EE30E0F4F0E0E75BF24F0C94E0
:101A90000F21570D570D600D600D620D600D600D2B
:101AA000600D570D570D670D600D600D670D803F80
:101AB00019F020F4803E20F481E00895843FE1F3A2
:101AC00080E00895803EC0F3813FD1F7F5CF93FBCE
:101AD000882780F90895CF93DF9300D000D01F921C
:101AE000CDB7DEB70F900F900F900F900F90DF9152
:101AF000CF910895CF93DF9300D000D000D0CDB721
:101B0000DEB726960FB6F894DEBF0FBECDBFDF91CD
:101B1000CF9108951F93CF93DF93C091600116E09A
:101B2000809161018C1304C0DF91CF911F910895C2
:101B3000D0E01C9FF0011D9FF00D1124EE59FE4FC7
:101B40004081518162817381848195810E947A0DE7
:101B50002196C770E5CF4091920150919301609119
:101B600094017091950180919601909197010C9448
:101B70007A0D1F93CF93DF9380919701807FD1F4EB
:101B8000809194018823B1F080916001D09161012E
:101B9000B0919201C09193014091950150919601AD
:101BA000A1E0BF3F09F0A0E0BA016095709516E092
:101BB000D81304C0DF91CF911F91089521E0411502
:101BC000510521F02A2FCF3F09F020E090E020FDC1
:101BD00038C0189FF001199FF00D1124EE59FE4FE7
:101BE00021812C132EC020812B132BC02281211187
:101BF00028C0238134812417350700F1241B350BBD
:101C0000283C3105F0F4209197012F70206120933A
:101C1000970126E0289FF001299FF00D1124E95932
:101C2000FE4F80818F708061808382E991E00E9405
:101C3000F30CDF91CF911F910C948A0D260F371F63
:101C4000DFCF01968770B4CFAF92BF92CF92DF9271
:101C5000EF92FF920F931F93CF93DF93CDB7DEB731
:101C600061970FB6F894DEBF0FBECDBF8C0185E043
:101C7000F801DE011D9601900D928A95E1F7D801D9
:101C80004C9111965C9111971296EC9030919201C3
:101C900060919301809195019091960121E00097C8
:101CA00031F06F3F19F421E03F3F09F020E0B22FFF
:101CB000B170BB2E20FD80C1F801C380D480A090FC
:101CC0009401AA2009F427C1C816D906D0F1D6017B
:101CD000A81BB90BCD01FF24F394883C910508F0B3
:101CE000F12C80919701982F907FFF2009F4CAC0B2
:101CF000911187C0FE2C651329C0341327C0E11051
:101D000025C08F708061809397010E94AB0D82E99E
:101D100091E00E94F30C80919701F80185838F2D4B
:101D200061960FB6F894DEBF0FBECDBFDF91CF91A5
:101D30001F910F91FF90EF90DF90CF90BF90AF90E9
:101D40000895809590958C0D9D1DC5CF81E0CD287F
:101D500031F05F3F19F481E04F3F09F080E080FDF2
:101D600024C081E08E25F82FF170DF2E80FF3FC068
:101D7000809160012091610136E0821318C04D8787
:101D80005E878D859E850E94E112292F22952F70F6
:101D9000223008F1243030F59F7009F1D8011596F2
:101DA0009C91907FE1F4FB2CBACF80E0DCCF90E0F7
:101DB000389FF001399FF00D1124EE59FE4F6181DB
:101DC000561306C06081461303C062816E110FC0B6
:101DD00001968770D2CF9F7011F0882321F3805E27
:101DE000883008F3C8010E94F30CBD2CDCCFEE2034
:101DF00009F495CF80919701816080939701F12C30
:101E00008ECF651312C0341310C0E1100EC0F8015C
:101E10008583C8010E94F30C86E0F801A2E9B1E0D5
:101E200001900D928A95E1F741C04D875E878D85BF
:101E30009E850E943C0D882309F4C8C0EE2009F459
:101E4000C5C080919701803270F02091920130914D
:101E5000930138872F831986DB86CA868C87CE014B
:101E600007960E94F30C86E0F801A2E9B1E0019028
:101E70000D928A95E1F70E94B90D0E94AB0DFF24E7
:101E8000F3944DCF911115C07C2DD98AC88A6E2D3F
:101E900089890E946B0D82E991E00E94F30C86E033
:101EA000E2E9F1E0DF011D928A95E9F70E94AB0DAE
:101EB00036CF651312C0341310C0E1100EC0F80104
:101EC0008583C8010E94F30CE2E9F1E086E0DF01BE
:101ED0001D928A95E9F7FA2C22CF4D875E878D8572
:101EE0009E850E943C0D882309F470C0EE2009F401
:101EF0006DC080919701803208F4B5CF2091920196
:101F0000309193013A8329831B82DD82CC828E83B8
:101F1000CE010196A6CFC816D90638F1F601E81B06
:101F2000F90BCF01F12C883C910508F03DC0FE2C47
:101F3000EE2009F44BC0651326C0341324C08091F1
:101F4000970180FD17C0982F907FA1F0D8011596BA
:101F50008C931597903F09F45CCF982F907F905FFA
:101F60008F70892B15968C9354CF809590958C0DFE
:101F70009D1DD8CF86E0F801A2E9B1E001900D9255
:101F80008A95E1F7CCCE4D875E878D859E850E9430
:101F90003C0D811168CF80919701816080939701FA
:101FA000C8010E94F30CBBCE7C2DD98AC88A6E2D45
:101FB00089890E946B0D73CFEE2041F04D875E87BB
:101FC0008D859E850E943C0D81114DCFC8010E94D8
:101FD000F30C55CF1F93CF93DF93CDB7DEB72C977C
:101FE0000FB6F894DEBF0FBECDBF4F835887698709
:101FF0007A878B879C87CE0107960E94240E8823C0
:1020000009F442C09F8188852A853B85232B39F0BE
:102010008F3F19F481E09F3F19F080E001C081E01B
:1020200080FD08C04F81588569857A858B859C85A0
:102030000E947A0D16E080916001909161018917EC
:1020400009F467C0819FC00111248E599E4F0E94E0
:10205000240E882309F45DC0E09160011E9FF00109
:102060001124EE59FE4F4081518162817381848138
:1020700095810E947A0D8091600190E001968770B1
:10208000992780936001D7CF86E0FE013796DE0165
:10209000119601900D928A95E1F79F8188852A8596
:1020A0003B85232B39F08F3F19F481E09F3F19F0D6
:1020B00080E001C081E080FDBDCF2091610130E072
:1020C000C901019687709927409160014817190648
:1020D00099F096E0929FD001939FB00D1124AE59D4
:1020E000BE4FFE01319601900D929A95E1F78093D3
:1020F00061010E948A0D9ECF0E94380D10926101ED
:102100001092600186E0E2E9F1E0DF011D928A951C
:10211000E9F72C960FB6F894DEBF0FBECDBFDF9166
:10212000CF911F910895EF92FF920F931F93CF933A
:10213000DF938C01892B81F0F12CEE24E394E801EC
:102140002196F8018491843770F4843008F05FC0E0
:102150008130B1F08230A1F1DF91CF911F910F91C9
:10216000FF90EF900895853709F44CC008F43DC006
:102170009CE7980F903780F78F770E94730A49C0C9
:102180000E5F1F4FFE01849190E2980F983060F42B
:102190008770FE2D01C0FF0F8A95EAF78F2F0E94EE
:1021A000E0130E94071402C00E9497098F2D8150EE
:1021B00030F2EFE9FFE03197F1F700C00000F7CF10
:1021C0000E5F1F4FFE01849190E2980F983050F4FB
:1021D0008770FE2D01C0FF0F8A95EAF78F2F0E94AE
:1021E000E613DFCF0E94730AE1CF0E5F1F4FFE019F
:1021F000C491C150D8F28FE99FE00197F1F700C078
:102200000000F7CF0E5F1F4FFE01F490CFCF0E946A
:1022100097098E01CBCF08956093B5017093B601F5
:102220008093B7019093B8010C94240D0F931F93E2
:102230000091B5011091B6012091B7013091B8011C
:10224000DC01CB01802B912BA22BB32B8093B5010A
:102250009093B601A093B701B093B8011F910F916D
:102260000C94240D0F931F930091B5011091B601AA
:102270002091B7013091B801DC01CB01802391237B
:10228000A223B3238093B5019093B601A093B70125
:10229000B093B8011F910F910C94240D0F931F93CD
:1022A0000091B5011091B6012091B7013091B801AC
:1022B000DC01CB0180279127A227B3278093B501AA
:1022C0009093B601A093B701B093B8011F910F91FD
:1022D0000C94240D1092B1011092B2011092B3012E
:1022E0001092B4010C94240D41E050E060E070E0E5
:1022F00004C0440F551F661F771F8A95D2F740937D
:10230000B1015093B2016093B3017093B4010C9486
:10231000240D41E050E060E070E004C0440F551F20
:10232000661F771F8A95D2F78091B1019091B20113
:10233000A091B301B091B401842B952BA62BB72BA0
:102340008093B1019093B201A093B301B093B40113
:102350000C94240D41E050E060E070E004C0440FB4
:10236000551F661F771F8A95D2F740955095609547
:1023700070958091B1019091B201A091B301B0919B
:10238000B40184239523A623B7238093B1019093AE
:10239000B201A093B301B093B4010C94240D41E0B9
:1023A00050E060E070E004C0440F551F661F771FC7
:1023B0008A95D2F78091B1019091B201A091B301B9
:1023C000B091B40184279527A627B7278093B10140
:1023D0009093B201A093B301B093B4010C94240D77
:1023E0000F931F930091B1011091B2012091B3019D
:1023F0003091B401DC01CB01802B912BA22BB32BAC
:102400008093B1019093B201A093B301B093B40152
:102410001F910F910C94240D0F931F930091B10104
:102420001091B2012091B3013091B401DC01CB01D4
:1024300080239123A223B3238093B1019093B2010F
:10244000A093B301B093B4011F910F910C94240D8C
:102450000F931F930091B1011091B2012091B3012C
:102460003091B401DC01CB0180279127A227B3274B
:102470008093B1019093B201A093B301B093B401E2
:102480001F910F910C94240D089527E0929F800DC9
:102490001124982F977071E001C0770F9A95EAF791
:1024A00086958695869525E0829FC001112450E08F
:1024B00040E0A62FB0E0FC01E40FF51FE856FE4F08
:1024C00060819D01042E02C0369527950A94E2F79B
:1024D0002170219526272723262720834F5F5F4FD2
:1024E0004530510541F7089527E0929F800D112452
:1024F000982F977086958695869525E0829FA001F6
:10250000112470E060E080E0FA01E60FF71FE85662
:10251000FE4F208130E0092E02C0369527950A949F
:10252000E2F721703327062E01C0220F0A94EAF742
:10253000822B6F5F7F4F6530710531F70895BF9231
:10254000CF92DF92EF92FF920F931F93CF93DF937F
:102550008C01C090B101D090B201E090B301F09035
:10256000B4018091B5019091B601A091B701B091ED
:10257000B801C82AD92AEA2AFB2ACFE1D0E0BC2E2A
:10258000D701C6010C2E04C0B695A79597958795DF
:102590000A94D2F780FD0EC0219788F7B12C8B2DBD
:1025A000DF91CF911F910F91FF90EF90DF90CF902F
:1025B000BF900895B8018C2F0E942105019761F307
:1025C000EECFCF93DF93EC010E949F12BE01DF910B
:1025D000CF910C9421051F93CF93DF93EB01909142
:1025E0005F01992331F0CB01DF91CF911F910C94C2
:1025F000E112882379F0CB010E949F12182F682FD7
:10260000CE010E944512BE01812FDF91CF911F9113
:102610000C942105CB010E947412182FF4CF8091E5
:10262000B90185958595859508958091B901877043
:10263000089598E0899F90011124622B6093B9015D
:102640000C9489119091B901809589238093B901E7
:10265000282F277061F4282F082E000C330B9217B7
:10266000130629F08595859585950C94AA110895F2
:102670009091B901977081E009F480E008959091FC
:1026800012019923E1F090910F0297FF18C0E82FF3
:10269000E695E695E695EF3139F12091000130910C
:1026A0000101E20FF32FF11D877021E030E001C03E
:1026B000220F8A95EAF78181822B818308952091E8
:1026C000000130910101F90132969FEF40E05191F4
:1026D000851751F09F3F19F4511101C0942F4F5F9E
:1026E0004E31A9F79F3F09F40895290F311D97FD39
:1026F0003A95F90182830895909112019923F1F09E
:1027000090910F0297FF1AC0E82FE695E695E6959F
:10271000EF3129F12091000130910101E20FF32FF7
:10272000F11D282F277081E090E001C0880F2A95C5
:10273000EAF7809591818923818308952091000192
:1027400030910101F9013296205E3F4F919189133A
:1027500003C0DF0111971C92E217F307B9F7089540
:1027600081E090E0E0910001F0910101E80FF91F94
:102770001082019680329105A9F708959091DD01AC
:10278000892B8093DD010895982F90958091DD012C
:1027900089238093DD0108951092DD0108959091C1
:1027A000DC01892B8093DC010895982F909580910E
:1027B000DC0189238093DC0108951092DC010895E7
:1027C0009091DB01892B8093DB010895982F9095E0
:1027D0008091DB0189238093DB0108951092DB0156
:1027E00008958093BA0108951092BA010895209136
:1027F000000130910101F9013196205E3F4F80E0E8
:10280000919191118F5FE217F307D1F70895E0914D
:102810000001F09101018091DD018083E0910001D0
:10282000F091010180819091DC01892B8083E091FE
:102830000001F091010180819091DB01892B80835F
:102840009091BA01992361F0E0910001F0910101AA
:102850008081892B80830E94F71381111092BA0125
:1028600080910001909101010C947D086DEE7EEF46
:1028700090E080E00E94492160E082E090E00E94C8
:10288000372160E083E090E00E94372160E084E03F
:1028900090E00E94372160E085E090E00C943721C1
:1028A00090E080E00E94312121E08D3E9E4F09F0B2
:1028B00020E0822F089582E090E00C942921682F77
:1028C00082E090E00C94372183E090E00C94292181
:1028D000682F83E090E00C94372184E090E00C9422
:1028E0002921682F84E090E00C9437218091150213
:1028F000843039F11092DF0188E190E020E40FB6D6
:10290000F894A895809360000FBE2093600080E04B
:102910000E94020583B7817F846083BF83B7816093
:1029200083BF7894889583B78E7F83BF0FB6F89462
:10293000A89580916000886180936000109260008B
:102940000FBE089508950895CF930E94A2140E9487
:10295000BF070E94A314C0E08C2F0E94650881115C
:1029600005C0CF5FC530C1F7CF91089581E0FCCF9E
:102970000E94380D0E9471080C9402051F920F925C
:102980000FB60F9211248F939F93AF93BF938091B3
:10299000DF01811113C080910B0290910C02A09174
:1029A0000D02B0910E024196A11DB11D80930B0244
:1029B00090930C02A0930D02B0930E02BF91AF91C1
:1029C0009F918F910F900FBE0F901F90189582E0EE
:1029D00084BD93E095BD9AEF97BD80936E000895F6
:1029E0002FB7F89480910B0290910C02A0910D02E8
:1029F000B0910E022FBF0895CF92DF92EF92FF9217
:102A00000F931F932FB7F89440910B0250910C0233
:102A100060910D0270910E022FBF6A017B01EE24BE
:102A2000FF248C0130E020E0C016D106E206F30658
:102A300050F0481B590BCA011F910F91FF90EF9066
:102A4000DF90CF90089541505109F3CF1F920F921C
:102A50000FB60F9211248F939F93AF93BF938091E2
:102A60000B0290910C02A0910D02B0910E02019602
:102A7000A11DB11D80930B0290930C02A0930D0237
:102A8000B0930E02BF91AF919F918F910F900FBEA7
:102A90000F901F9018950E94CF1CF8942FEF87EA93
:102AA00091E6215080409040E1F700C0000087E0AF
:102AB00090EBDC0180931E0290931F02A0932002F2
:102AC000B093210288E19CE00FB6F894A89580931A
:102AD00060000FBE90936000FFCFCF92DF92EF9225
:102AE000FF920F931F93CF93C0E0E82EF12C8C2F11
:102AF0000E94650810E000E0C82ED12CC601002E0F
:102B000002C0959587950A94E2F780FD11C00F5F8A
:102B10001F4F0730110591F7CF5FC53041F780E0B7
:102B2000CF911F910F91FF90EF90DF90CF9008957C
:102B3000602F7C2F80E00E940505E816F90639F722
:102B400081E0EECFCF93C82F8CE20E946D158823D1
:102B500021F08C2FCF910C946D1580E0CF910895CA
:102B6000CF930E945014811102C00E943614C5E612
:102B700008C00E94BF078FE39CE90197F1F700C0EE
:102B80000000C150B1F789E20E94A2158111EFC087
:102B90008AE20E94A21581110E94361485E00E94EB
:102BA000A21581110E944B150E945B148093DE01D7
:102BB00087E00E94A215882371F08BE10E94A21584
:102BC000882309F4B1C09091DE01892F8D7F91FF98
:102BD00082608093DE018091DE010E945F140E947A
:102BE0006D1490E09093100280930F0280EE0E948B
:102BF000A215882341F090910F02892F8E7F90FFBC
:102C0000816080930F0289E30E94A215882341F01E
:102C100090910F02892F8D7F91FF826080930F0228
:102C200082EE0E94A215882341F090910F02892F15
:102C30008B7F92FF846080930F0286EE0E94A21524
:102C4000882341F090910F02892F877F93FF88603E
:102C500080930F0283EE0E94A215882341F0909189
:102C60000F02892F8F7E94FF806180930F0285E38E
:102C70000E94A215882341F090910F02892F8F7D29
:102C800095FF806280930F0281E30E94A215882342
:102C900041F090910F02892F8F7B96FF8064809383
:102CA0000F0281E10E94A215882341F090910F024A
:102CB000892F97FB87F9805880930F0280910F022C
:102CC0000E94711487E20E94A215C82F8EE10E9413
:102CD000A2158111C2608FE10E94A2158111C4600A
:102CE00080E20E94A2158111C86081E20E94A215B3
:102CF0008111C06182E20E94A2158111C06283E24B
:102D00000E94A2158111C06484E20E94A21588234A
:102D100041F1C0688C2F0E9468146C2F70E090E025
:102D200080E0CF910C940C118EE00E94A2158823B4
:102D300039F09091DE01892F8B7F92FF846049CF1B
:102D400080E10E94A2159091DE01882329F0892F4D
:102D5000877F93FF88603DCF892F8E7F90FF8160B2
:102D600038CFC111D7CF0E946414682FD7CFCF912D
:102D700008958091E20180FF12C06091050185E015
:102D8000689FB001112475956795759567956038B2
:102D90007105A8F561157105A1F1862F089581FFD0
:102DA00009C06091050185E0689FB0011124759507
:102DB0006795EDCF82FF07C06091050185E0689FB0
:102DC000B0011124E4CF2091E3012223A9F09091D6
:102DD00004016091050185E0689FB0011124291765
:102DE000B0F6269FA001279F500D1124692F70E097
:102DF000CA010E94FB20CBCF65E070E0CECF8FE709
:102E0000089581E008958091E20180FF0CC06091F7
:102E1000030170E075956795759567956115710566
:102E200049F1862F089581FF06C06091030170E08B
:102E300075956795F3CF6091030182FD0BC090916A
:102E4000E3019923A1F0609102018091030196179B
:102E500038F0682F70E06038710500F38FE708954F
:102E6000899FC001112470E00E94FB20F4CF61E033
:102E700070E0D7CF81E00895803F31F40E94B91609
:102E800081958093E6010895813F19F40E94B91657
:102E9000F8CF823F31F40E94B91681958093E50105
:102EA0000895833F19F40E94B916F8CF893F29F499
:102EB0000E9403178093E70108958A3F21F40E943E
:102EC00003178195F7CF8B3F31F40E94031781954B
:102ED0008093E80108958C3F19F40E940317F8CFFE
:102EE000843F31F48091E40181608093E40108958E
:102EF000853F21F48091E4018260F7CF863F21F481
:102F00008091E4018460F1CF873F21F48091E40156
:102F10008860EBCF883F21F48091E4018061E5CFA8
:102F20008D3F31F48091E20181608093E201089548
:102F30008E3F21F48091E2018260F7CF8F3FB9F795
:102F40008091E2018460F1CF803FC1F48091E6017D
:102F500087FD1092E6018091E50181110EC08091FC
:102F6000E60181110AC08091E701811106C08091BC
:102F7000E801811102C01092E3010895813F29F414
:102F80008091E60118162CF3E6CF9091E501823F7F
:102F900029F497FFE0CF1092E501DDCF833F19F4CC
:102FA0001916CCF3D8CF893F39F48091E701181670
:102FB00094F61092E701CFCF8A3F29F48091E70180
:102FC00087FFC9CFF6CF8B3F39F48091E80187FFA7
:102FD000C2CF1092E801BFCF8C3F29F48091E80165
:102FE0001816BCF3B8CF843F31F48091E4018E7F92
:102FF0008093E401B0CF853F21F48091E4018D7F7F
:10300000F7CF863F21F48091E4018B7FF1CF873F9A
:1030100021F48091E401877FEBCF883F21F48091F8
:10302000E4018F7EE5CF8D3F31F48091E2018E7F08
:103030008093E20190CF8E3F21F48091E2018D7F59
:10304000F7CF8F3F09F087CF8091E2018B7FF0CFE0
:1030500084EE91E00E9488080E94F0149093E101B0
:103060008093E00108951F93CF93DF938091E00157
:103070009091E1010E94FC14AC019091E301209138
:10308000060130E0911106C0209107018AE0289FD7
:10309000900111244217530780F08091E501C091FF
:1030A000E6011091E701D091E80181110AC0C11138
:1030B00078C0111176C0D11174C0DF91CF911F91EA
:1030C00008959F3F19F09F5F9093E301181624F431
:1030D0000E94B9168093E5018091E50187FF05C044
:1030E0000E94B91681958093E5011C1624F40E9474
:1030F000B9168093E6018091E60187FF05C00E9422
:10310000B91681958093E6016091E501662331F15E
:10311000C091E601CC2311F1062E000C770B880B31
:10312000990B0E94022023E333E343E35FE30E9411
:1031300066200E94CA1F6093E5016C2FCC0F770BAD
:10314000880B990B0E94022023E333E343E35FE300
:103150000E9466200E94CA1F6093E601111624F4A3
:103160000E9403178093E7018091E70187FF05C064
:103170000E94031781958093E7011D1624F40E9495
:1031800003178093E8018091E80187FF05C00E9442
:10319000031781958093E801DF91CF911F910C94E3
:1031A00028189F3F09F08FCFA0CF85E0E4EEF1E033
:1031B000DF011D928A95E9F71092E3011092E20176
:1031C0000895809109020895CF93DF9300D01F9254
:1031D000CDB7DEB79C0180911502843019F593E0DC
:1031E00099833B832A839093E9008FEF9091E800C5
:1031F000815095FD06C095ED9A95F1F7000081117B
:10320000F5CF8091E80085FF0DC050E040E063E01D
:1032100070E0CE0101960E943F1B8091E8008E77FE
:103220008093E8000F900F900F90DF91CF91089559
:10323000CF93DF9300D01F92CDB7DEB72091150258
:10324000243031F522E02983805891099B838A83B9
:1032500083E08093E9008FEF9091E800815095FD25
:1032600006C095ED9A95F1F700008111F5CF809198
:10327000E80085FF0DC050E040E063E070E0CE0163
:1032800001960E943F1B8091E8008E778093E800B2
:103290000F900F900F90DF91CF9108959C01809136
:1032A00015028430F9F482E08093E9009FEF809169
:1032B000E800915085FD06C085ED8A95F1F7000084
:1032C0009111F5CF8091E80085FF0CC050E040E0FF
:1032D00065E070E0C9010E943F1B8091E8008E7795
:1032E0008093E8000895CF93DF93EC01809115025D
:1032F0008430F1F4909112019923E9F090910F023A
:1033000097FF19C08093E9008FEF9091E8008150FA
:1033100095FD06C095E19A95F1F700008111F5CF72
:103320008091E80050E040E060E270E085FD1AC066
:10333000DF91CF91089581E08093E9008FEF909124
:10334000E800815095FD06C095ED9A95F1F70000D3
:103350008111F5CF8091E80085FFEACF50E040E091
:1033600068E070E0CE010E943F1B8091E8008E77FC
:103370008093E80080E2FE01A9EEB1E001900D9299
:103380008A95E1F7D5CF80911402811109C00E947E
:10339000CF1C0E942C1D8091E20084608093E2008B
:1033A0000895109214020895089508950C94B81485
:1033B00042E061EC81E00E944D1C42E061EC82E061
:1033C0000E944D1C42E061EC83E00E944D1C42E2F1
:1033D00061EC84E00C944D1C80911702833009F459
:1033E00055C030F4813071F1823009F491C00895F4
:1033F0008A3009F47DC08B3009F463C0893009F04C
:1034000044C080911602813209F03FC080911A02B7
:1034100090911B02009711F00397B9F58091E80095
:10342000877F8093E8008091E80082FF2AC0809126
:10343000F100809309028091E8008B778093E80087
:103440000C94811C80911602813AF9F48091E80075
:10345000877F8093E80080911A0290911B02892B4C
:1034600061F460E289EE91E070E00E948E1B809131
:10347000E8008B778093E800089560E090E080E0BA
:10348000F3CF809115028111CECF0895809116025D
:10349000813AD9F780911A0290911B02892BA9F7E2
:1034A0008091E800877F8093E8008091E80080FFAA
:1034B000FCCF809112018093F1008091E8008E771B
:1034C000BDCF80911602813201F780911A0290914E
:1034D0001B02892BD1F68091E800877F8093E8005A
:1034E0000E94811C80911802809312010C94380D67
:1034F00080911602813249F68091E800877F80939F
:10350000E8000E94811C8091190280930A020895AC
:1035100080911602813A09F0B8CF8091E800877F48
:103520008093E8008091E80080FFFCCF80910A0240
:10353000C2CF84B7877F84BF0FB6F894A8958091D7
:103540006000886180936000109260000FBE80E888
:1035500080936100109261000E94C0080E94CF1CFD
:103560000E942C1D8091E20084608093E200789498
:103570000E94AE1F0E94C20888E091E00E946C0881
:1035800080911502853019F00E94C808F9CF0E9479
:10359000761480911302882399F30E94A41488233F
:1035A00079F30E94291BECCF292F332723303105D3
:1035B00079F158F421303105F1F02230310519F15B
:1035C00090E080E030E020E01AC02132310599F12E
:1035D00022323105A9F7643098F770E0FB01EE0F55
:1035E000FF1FED5DFE4F20813181615E7E4FFB014B
:1035F000808190E004C082E190E029EA35E0FA01A0
:103600003183208308958DE690E02CE335E0F7CFF9
:1036100099278130910561F028F0029789F6ECE056
:10362000F5E002C0E8E3F5E0849190E09F01E7CF88
:10363000E0E2F5E0F9CF643008F0C2CFE62FF0E029
:10364000EE0FFF1FE55DFE4F2081318189E090E0A4
:10365000D6CF80E189BD82E189BD09B400FEFDCFEE
:103660008091D8008F7D8093D8008091E0008260A7
:103670008093E0008091E00081FDFCCF0895AF923F
:10368000BF92CF92DF92FF920F931F93CF93DF935E
:103690006C01EB018A010E94A01CF82E811123C04D
:1036A0000115110539F0F80180819181C81BD90BF2
:1036B000C80ED91EB12CA12C2097A9F08091E8004A
:1036C00085FD22C08091E8008E778093E800011587
:1036D0001105A1F0F80180819181A80EB91EB18277
:1036E000A08285E0F82E8F2DDF91CF911F910F9151
:1036F000FF90DF90CF90BF90AF9008950E94A01CE4
:103700008823D1F2F82EEFCFF60181916F018093DB
:10371000F1002197FFEFAF1ABF0ACECFFC018091D5
:103720001C0290911D0286179707A0F06115710584
:1037300029F49091E8009E779093E80090E061155D
:10374000710551F4911108C08091E80082FF35C0E5
:1037500080E00895BC01F2CF809115028823C9F161
:103760008530C9F18091E80083FD31C08091E80087
:1037700082FDEACF8091E80080FFE1CF2091F30045
:103780008091F200322F282F6115710519F0283031
:10379000310558F091E02830310509F090E0209192
:1037A000E8002E772093E800CACF81918093F10042
:1037B000615071092F5F3F4FE7CF80911502882339
:1037C00041F0853041F08091E80083FFBDCF81E07A
:1037D000089582E0089583E00895FC0180911C0221
:1037E00090911D0286179707A0F06115710529F4C5
:1037F0008091E8008E778093E80090E06115710574
:1038000051F4911108C08091E80082FF36C080E039
:103810000895BC01F2CF809115028823D1F1853043
:10382000D1F18091E80083FD32C08091E80082FDF3
:10383000EACF8091E80080FFE1CF2091F3008091F2
:10384000F200322F282F6115710519F0283031054B
:1038500058F091E02830310509F090E08091E800BF
:103860008E778093E800CACF84918093F1003196DF
:10387000615071092F5F3F4FE6CF80911502882379
:1038800041F0853041F08091E80083FFBCCF81E0BA
:10389000089582E0089583E00895982F973028F0E6
:1038A0008F708093E90081E008959093E900242FC0
:1038B000762F50E0981731F07091EC002091ED00D8
:1038C0005091F00021FD02C09F5FE8CF3091EB00E6
:1038D0003E7F3093EB003091ED003D7F3093ED0063
:1038E0003091EB0031603093EB007093EC0020934B
:1038F000ED005093F0002091EE0027FDE5CF80E031
:1039000008958091160287FF13C08091E80082FF1E
:1039100006C08091E8008B778093E80004C0809116
:1039200015028111F2CF0895809115028823D9F3F1
:103930008091E80080FFF8CF8091E8008E77ECCF8F
:103940002091E4003091E50085E69091EC0090FF35
:1039500006C09091E80090FF06C080E00895909125
:10396000E80092FDFACF90911502992391F09530DD
:1039700091F09091EB0095FD10C04091E4005091C2
:10398000E5002417350709F381509A01F1F684E028
:10399000089582E0089583E0089581E008950E94EB
:1039A0003D1D0E94451DE0EEF0E080818160808336
:1039B000E8EDF0E080818F77808319BCA7EDB0E05F
:1039C0008C918E7F8C9380818F7E808310921402E5
:1039D00008950F931F93CF93DF930E943D1D0E9484
:1039E000451DC8EDD0E088818F7788838881806805
:1039F000888388818F7D888319BC1092150210926C
:103A00001102109213021092120200EE10E0F8015F
:103A100080818B7F808388818160888342E060E041
:103A200080E00E944D1CE1EEF0E080818E7F80837B
:103A3000E2EEF0E080818160808380818860808315
:103A4000F80180818E7F8083888180618883DF9107
:103A5000CF911F910F910895E8EDF0E080818F7E66
:103A60008083E7EDF0E080818160808384E082BF25
:103A700081E0809314020C94E91CE8EDF0E0808171
:103A80008E7F80831092E20008951092DA001092E7
:103A9000E10008951F920F920FB60F9211242F93F9
:103AA0003F934F935F936F937F938F939F93AF93C6
:103AB000BF93EF93FF938091E10082FF0BC0809151
:103AC000E20082FF07C08091E1008B7F8093E100DC
:103AD0000E94AD1F8091DA0080FF19C08091D8004C
:103AE00080FF15C08091DA008E7F8093DA0080918C
:103AF000D90080FF94C080E189BD82E189BD09B40D
:103B000000FEFDCF81E0809315020E94C3198091D1
:103B1000E10080FF19C08091E20080FF15C0809114
:103B2000E2008E7F8093E2008091E20080618093CA
:103B3000E2008091D80080628093D80019BC85E0B3
:103B4000809315020E94D5198091E10084FF29C05D
:103B50008091E20084FF25C080E189BD82E189BDBA
:103B600009B400FEFDCF8091D8008F7D8093D800EE
:103B70008091E1008F7E8093E1008091E2008F7E52
:103B80008093E2008091E20081608093E200809166
:103B90001102882309F449C084E0809315020E9431
:103BA000D6198091E10083FF29C08091E20083FF54
:103BB00025C08091E100877F8093E10082E08093BF
:103BC0001502109211028091E1008E7F8093E10036
:103BD0008091E2008E7F8093E2008091E20080611C
:103BE0008093E20042E060E080E00E944D1C809102
:103BF000F00088608093F0000E94D419FF91EF914B
:103C0000BF91AF919F918F917F916F915F914F91F4
:103C10003F912F910F900FBE0F901F90189519BCD8
:103C2000109215020E94D11972CF8091E30087FD96
:103C300002C081E0B2CF83E0B0CF1F920F920FB6E7
:103C40000F9211242F933F934F935F936F937F9322
:103C50008F939F93AF93BF93CF93EF93FF93C091B5
:103C6000E900CF708091EC001092E9008091F000A3
:103C7000877F8093F00078940E94591E1092E9008B
:103C80008091F00088608093F000C093E900FF917C
:103C9000EF91CF91BF91AF919F918F917F916F9154
:103CA0005F914F913F912F910F900FBE0F901F90FA
:103CB00018951F93CF93DF93CDB7DEB7AA970FB6B2
:103CC000F894DEBF0FBECDBFE6E1F2E08091F100D7
:103CD000819322E0EE31F207C9F70E94EC1980913E
:103CE000E80083FF42C080911602909117029A303B
:103CF00008F03BC0E92FF0E0E058F14E0C940F21A2
:103D00008A1EAE1EB51EAE1EB51E091F2B1FB51E88
:103D1000801F8D1F803879F0823839F580911A0222
:103D20008F708093E9008091EB0085FB882780F9F4
:103D30001092E90006C08091120290911302911135
:103D400082609091E800977F9093E8008093F10063
:103D50001092F1008091E8008E772DC0282F2D7FE2
:103D600021F48823D1F0823059F18091E80083FF5B
:103D70000AC08091E800877F8093E8008091EB0083
:103D800080628093EB00AA960FB6F894DEBF0FBE58
:103D9000CDBFDF91CF911F9108958091180281309E
:103DA00021F7933009F080E0809313021092E9002C
:103DB0008091E800877F8093E8000E94811CD5CF26
:103DC000809118028111F2CF80911A028F7069F2EE
:103DD0008093E9002091EB0020FFE8CF933031F48D
:103DE0008091EB0080628093EB00E0CF9091EB003C
:103DF00090619093EB0021E030E001C0220F8A95A2
:103E0000EAF72093EA001092EA008091EB008860C4
:103E1000EACF8111AACF109118021F778091E30099
:103E20008078812B8093E3008091E800877F8093E6
:103E3000E8000E94811C8091E80080FFFCCF809107
:103E4000E30080688093E30083E0111101C082E009
:103E5000809315028ACF8058823008F086CF8091F7
:103E60001802909119028C3D23E09207A1F583E09E
:103E70008A838AE289834FB7F894DE01139620E0A3
:103E80003EE051E2E32FF0E050935700E49120FF31
:103E900003C0E295EF703F5FEF708E2F90E0EA3045
:103EA000C0F0C7968D939D932F5F243159F74FBF74
:103EB0008091E800877F8093E8006AE270E0CE019D
:103EC00001960E948E1B8091E8008B778093E8001A
:103ED0004CCFC096E7CFAE014F5F5F4F60911A02A3
:103EE0000E94D41ABC01892B09F43FCF9091E800BD
:103EF000977F9093E80089819A810E94ED1BE3CF20
:103F0000803809F032CF8091E800877F8093E80005
:103F1000809111028093F1001DCF811126CF9091E5
:103F20001802923008F021CF8091E800877F8093BB
:103F3000E800909311020E94811C80911102882355
:103F400031F084E0809315020E94D8190ECF809141
:103F5000E30087FDF6CF81E0F5CF0895CF93809100
:103F60001502882399F0C091E900CF708091EC0090
:103F700080FD0EC080E0C82B1092E9008091E8001F
:103F800083FD0E94591ECF70C093E900CF91089520
:103F900080E8F1CF0E94D11F6894B1110C94602089
:103FA00008950E94452088F09F5798F0B92F9927CF
:103FB000B751B0F0E1F0660F771F881F991F1AF014
:103FC000BA95C9F714C0B13091F00E945F20B1E0FA
:103FD00008950C945F20672F782F8827B85F39F0F9
:103FE000B93FCCF3869577956795B395D9F73EF4AD
:103FF00090958095709561957F4F8F4F9F4F089555
:10400000E89409C097FB3EF4909580957095619572
:104010007F4F8F4F9F4F9923A9F0F92F96E9BB2728
:104020009395F695879577956795B795F111F8CFA4
:10403000FAF4BB0F11F460FF1BC06F5F7F4F8F4F0F
:104040009F4F16C0882311F096E911C0772321F005
:104050009EE8872F762F05C0662371F096E8862F9D
:1040600070E060E02AF09A95660F771F881FDAF7F4
:10407000880F9695879597F9089557FD9058440FA6
:10408000551F59F05F3F71F04795880F97FB991FB7
:1040900061F09F3F79F08795089512161306140674
:1040A000551FF2CF4695F1DF08C016161706180601
:1040B000991FF1CF86957105610508940895E894DC
:1040C000BB2766277727CB0197F908950E947920AF
:1040D0000C94EA200E94DC2038F00E94E32020F0BB
:1040E000952311F00C94D3200C94D92011240C9416
:1040F00060200E943D2070F3959FC1F3950F50E022
:10410000551F629FF001729FBB27F00DB11D639F89
:10411000AA27F00DB11DAA1F649F6627B00DA11D2F
:10412000661F829F2227B00DA11D621F739FB00DD5
:10413000A11D621F839FA00D611D221F749F332745
:10414000A00D611D231F849F600D211D822F762FDE
:104150006A2F11249F5750409AF0F1F088234AF0BB
:10416000EE0FFF1FBB1F661F771F881F9150504027
:10417000A9F79E3F510580F00C94D3200C94602049
:104180005F3FE4F3983ED4F3869577956795B795AE
:10419000F795E7959F5FC1F7FE2B880F911D9695C8
:1041A000879597F9089597F99F6780E870E060E038
:1041B00008959FEF80EC089500240A9416161706C0
:1041C00018060906089500240A9412161306140608
:1041D00005060895092E0394000C11F4882352F06B
:1041E000BB0F40F4BF2B11F460FF04C06F5F7F4F23
:1041F0008F4F9F4F089597FB072E16F4009407D01A
:1042000077FD09D00E94152107FC05D03EF490955A
:1042100081959F4F0895709561957F4F0895EE0F9A
:10422000FF1F0590F491E02D0994AA1BBB1B51E1DF
:1042300007C0AA1FBB1FA617B70710F0A61BB70B16
:10424000881F991F5A95A9F780959095BC01CD01BB
:104250000895F999FECF92BD81BDF89A992780B54E
:104260000895A8E1B0E042E050E00C945121262FDF
:10427000F999FECF92BD81BDF89A019700B402165C
:1042800039F01FBA20BD0FB6F894FA9AF99A0FBE0A
:1042900008950196272F0E9438210C943721DC01C4
:1042A000CB01FC01F999FECF06C0F2BDE1BDF89A41
:1042B000319600B40D9241505040B8F70895F894EB
:0242C000FFCF2E
:1042C200BB012808140A321EE11873194E19181975
:1042D200E4180136323331F7F6F53534C6976640C5
:1042E2004D363977062A06F405BB054E056705806B
:0442F2000599050025
:00000001FF
