:100000000C942C020C9473020C9473020C947302E3
:100010000C9473020C9473020C9473020C9473028C
:100020000C9473020C9473020C94AF1B0C94821CFE
:100030000C942E130C9473020C9473020C947302A0
:100040000C9473020C9473020C9473020C9473025C
:100050000C9473020C9496130C9473020C94730218
:100060000C9473020C9473020C9473020C9473023C
:100070000C9473020C9473020C9473020C9473022C
:100080000C9473020C9473020C9473020C9473021C
:100090000C9473020C9473020C9473020C9473020C
:1000A0000C9473020C9473020C9473020F000E00F4
:1000B00010000D0011000C0012000B0013000A00CC
:1000C0000400090005000800060007000100010007
:1000D0000100010001000100010001000100010018
:1000E0000100010001000100010001000100010008
:1000F00001000100010001000100010001000100F8
:1001000001000100010001000100010001000100E7
:1001100001000100010001000100010001000100D7
:1001200001000100010001000100010001000100C7
:1001300001000100010001000100010001000100B7
:1001400001000100010001000100010001000100A7
:100150000100010001000100010001000100010097
:100160000100010001000100010001000100010087
:100170000100010001000100010001000100010077
:100180000100010001000100010001000100010067
:100190000100010001000100010001000100010057
:1001A0000100010001000100010001000100010047
:1001B0000100010001000100010001000100010037
:1001C0000100010001000100010001000100010027
:1001D0000100010001000100010001000100010017
:1001E0000100010001000100010001000100010007
:1001F00001000100010001000100010001000100F7
:1002000001000100010001000100010001000100E6
:1002100001000100010001000100010001000100D6
:1002200001000100010001000100010001000100C6
:1002300001000100010001000100010001000100B6
:1002400001000100010001000100010001000100A6
:100250000100010001000100010001000100010096
:100260000100010001000100010001000100010086
:100270000100010001000100010001000100010076
:100280000100010001000100010001000100010066
:100290000100010001000100010001000100010056
:1002A00001000100010001000100010012036B00C8
:1002B0006500790062006F00610072006400000058
:1002C000160371006D006B006200750069006C0020
:1002D00064006500720000000403090409026D0057
:1002E000040100A0FA090400000103010100092132
:1002F000110100012240000705810308000A0904DA
:1003000001000103010200092111010001224D0039
:100310000705820308000A09040200010300000027
:100320000921110100012236000705830308000A94
:10033000090403000103000000092111010001224A
:10034000390007058403200001120110010000009C
:1003500008EDFE606001000102000105010906A12F
:1003600001050719E029E7150025019508750181A8
:100370000205081901290595057501910295017578
:100380000391010507190029F71500250195F87556
:10039000018102C005010980A10185021601002624
:1003A00003001A81002A8300751095018100C005A1
:1003B0000C0901A1018503160100269C021A010007
:1003C0002A9C02751095018100C005010902A10156
:1003D0000901A10005091901290515002501950547
:1003E000750181029501750381010501093009310B
:1003F0001581257F95027508810609381581257FAD
:10040000950175088106050C0A38021581257F952E
:100410000175088106C0C005010906A1010507197B
:10042000E029E71500250195087501810295017500
:1004300008810105081901290595057501910295A5
:1004400001750391010507190029FF150026FF001A
:10045000950675088100C00011241FBECFEFDAE0B9
:10046000DEBFCDBF04B603FE27C080911402909179
:100470001502A0911602B09117028730904BA74049
:10048000B04BD1F410921402109215021092160281
:100490001092170214BE84B7877F84BF0FB6F894FA
:1004A000A895809160008861809360001092600040
:1004B0000FBEE0E0F8E3099511E0A0E0B1E0ECE860
:1004C000FFE302C005900D92A033B107D9F722E0F7
:1004D000A0E3B1E001C01D92A431B207E1F70E9490
:1004E000FE180C94C41F0C94000090E080E0089566
:1004F0000895089581E00895089581E008950C9489
:100500007A020E94AC0B2FEF84E39CE021508040E4
:100510009040E1F700C000000C94BB13FF920F93D2
:100520001F93CF93DF938C01FC01C081D181809117
:10053000640181113FC082818823B9F1CE010E94FC
:100540000F11F82E682FCE010E94B910BE018F2D19
:100550000E94D503EC01B8010E947F02882309F4B0
:100560004AC0B801CE010E94E305882309F443C0C4
:10057000C531F0E7DF0718F5C23080E7D80708F08B
:100580004BC0C115E0E7DE0789F1C130D047D1F19A
:1005900081E08093320180933301C801DF91CF91D4
:1005A0001F910F91FF900C947D02CE010E94E610E6
:1005B000F82ECCCFCE010E940F11BE01C9CFCC3393
:1005C00080E7D80709F4ACC0CD33D04709F7F8016C
:1005D0008281882309F4CBC0109233010E946013FA
:1005E000909331018093300180E2A7C0F8018281AD
:1005F00081110E94810280E0DF91CF911F910F91C4
:10060000FF900895F80182818823A9F38091D40195
:1006100081608093D401EFCFF8018281882309F4AF
:10062000BCCF0E94C012811102C00E94A6120E947B
:10063000DD1290E09093060280930502FE01E350E4
:10064000F047809105028160E231F105C8F4E55D73
:10065000FC4F0C94741F3D0349034D035103550394
:1006600059035D036103650369036D03710375033A
:1006700079037D03810385038903809105028260EC
:1006800080930502809105020E94E1120E94AC0B4A
:10069000B2CF809105028460F3CF8091050288601B
:1006A000EFCF809105028061EBCF809105028062DF
:1006B000E7CF809105028064E3CF809105028068D6
:1006C000DFCF809105028460EACF809105028E7FA2
:1006D000D7CF809105028D7FD3CF809105028B7F8C
:1006E000CFCF80910502877FCBCF809105028F7E8F
:1006F000C7CF809105028F7DC3CF809105028F7B8C
:10070000BFCF809105028F77BBCF809105028B7F91
:10071000EACF90910502892F97FB87F98058B0CFD7
:10072000F8018281882361F0109232010E946013E7
:10073000909331018093300182E00E9436095BCFB3
:100740008091320181110FC080913001909131016F
:100750000E946C13883C910530F486E20E940B08DD
:1007600086E20E94E70882E00E943D0944CF809122
:10077000330181110FC080913001909131010E94AD
:100780006C13883C910530F487E20E940B0887E2E5
:100790000E94E70880E2E8CF0C9432060C943406FD
:1007A0000C947C020C94D003089528E0829FC00131
:1007B0001124FC01E70FF11DEE0FFF1FE60FF11DE5
:1007C000EE0FFF1FE455FF4F859194910895FC01B2
:1007D000EE0FFF1FE455FD4F8591949108950E94FF
:1007E000D5030E946205811520E4920708F08DC0B0
:1007F000811540E3940708F0E8C0803E910508F0B9
:1008000071C0803C910508F0CCC0883A910580F415
:10081000853A910508F0CAC08130910509F46EC08F
:1008200020F08430910508F069C090E080E00895E0
:100830008D3B9105D0F7883A910509F404C1893AB6
:10084000910509F403C18A3A910509F402C18B3A72
:10085000910509F401C18C3A910509F400C18B3B63
:10086000910509F4FFC08C3B910509F4FEC08D3A57
:10087000910509F4FDC0803B910509F4FCC08E3A56
:10088000910509F4FBC08F3A910509F4FAC0813B48
:10089000910509F4F9C0823B910509F4F8C0833B46
:1008A000910509F4F7C0843B910509F4F6C0853B36
:1008B000910509F4F5C0863B910509F4F4C0873B26
:1008C000910509F4F3C0883B910509F4F2C0893B16
:1008D000910509F4F1C08A3B910509F4F0C080E06C
:1008E00094E408958F3F910509F048F4803F910505
:1008F00008F067C0883E910508F097CF08958115EC
:1009000020E2920708F05FC00895811543E594073F
:1009100060F5811522E5920708F062C0811541E576
:10092000940708F058C0811520E5920708F450C0DC
:100930009C0154E0369527955A95E1F7922F9370D4
:10094000482F437021E030E002C0220F331F4A9548
:10095000E2F73C68392B86958695837040E2849F48
:10096000C0011124822B932B0895811545E594072E
:1009700050F4811524E5920708F446C0982F882783
:10098000846F906A0895811546E5940708F450C075
:100990009C0130569F702115304108F046CF90627F
:1009A0000895805C91090E94E7030895853A9105B6
:1009B00009F443C0863A910509F042C082E890E408
:1009C0000895906508959F70EECF9927906C0895D3
:1009D0009F70906A0895982F8827816F906A089574
:1009E000AC014370552721E030E002C0220F331FD5
:1009F0004A95E2F78695869540E2849FC0011124CE
:100A0000822B932B9C680895AC014370552721E0FD
:100A100030E002C0220F331F4A95E2F78695869593
:100A200040E2849FC0011124822B932B9A68089581
:100A3000982F882788279F71B2CF81E890E4089586
:100A400083E890E4089582EE94E4089589EE94E4B6
:100A500008958AEE94E4089585EB94E4089586EB76
:100A600094E4089583EB94E4089584EB94E408956A
:100A700087EB94E408958CEC94E408958DEC94E471
:100A8000089583E895E408958AE895E4089582E955
:100A900095E4089584E995E4089581E296E4089543
:100AA00083E296E4089584E296E4089585E296E46C
:100AB000089586E296E4089587E296E408958AE22E
:100AC00096E41CCF8238910549F1B0F48133910549
:100AD00009F45CC048F48932910509F452C08A32A5
:100AE000910509F458C008958533910509F444C06F
:100AF0008933910599F00895833E910531F138F4D9
:100B0000803E910591F0823E9105B1F00895863EB8
:100B1000910511F1873E910541F10895209105025B
:100B20002370C9F080EE90E008952091050220FF27
:100B300012C089E390E008952091050222FF0BC0C6
:100B400024FF2EC090E080E008952091050222FD50
:100B50002AC024FDF7CF08952091050223FFFBCF83
:100B600024FDF0CF87EE90E008952091050223FF49
:100B7000F0CF86EE90E008952091050225FD16C085
:100B800008952091050225FD14C0089520910502C5
:100B900026FD12C008952091050226FD10C008957B
:100BA00083EE90E0089582EE90E0089589E290E06F
:100BB000089585E390E008958AE290E0089581E346
:100BC00090E0C9CF08950F931F93CF938C01FB0141
:100BD0008281811106C0C1E08C2FCF911F910F91AE
:100BE0000895C0914101C11125C00531104799F701
:100BF0000E94E20581E0809341010E94601390937E
:100C0000400180933F0110923401109236011092FE
:100C10003501109238011092370110923A0110926A
:100C2000390110923C0110923B0110923E0110924A
:100C30003D01D2CF80913F01909140010E946C1301
:100C4000883C910540F680913401E82FF0E0EE0FEA
:100C5000FF1FEB5CFE4F118300838F5F8093340195
:100C6000C0E0BACF0C9478020C94790285B7806802
:100C700085BF85B7806885BFA3E1B1E061E070E022
:100C80008D91E82FE295EF70F0E041A18F709B010C
:100C900001C0220F8A95EAF7922F9095942391A391
:100CA00082A1822B82A381E0AB31B80749F78798F4
:100CB0008F9A3E98469AEAE4F1E0A2E4B1E01192FC
:100CC0001D9281E0E235F807D1F70C94CC03BF9276
:100CD000CF92DF92EF92FF920F931F93CF93DF9308
:100CE00002E411E083E1C82E81E0D82EE801EE2471
:100CF000E394F12CBB24B39458811882D6018D91D2
:100D00006D01E82FE295EF70F0E091A18F709701EF
:100D100001C0220F8A95EAF7892F822B81A392A125
:100D2000422F4095942392A3B0EABA95F1F78FB180
:100D30008095881F8827881F9881892B88833699FA
:100D400040C092E0892B888381A1842381A382A162
:100D5000822B82A38881581741F0B09252010E94E1
:100D6000601390935401809353012196EBE1CE16CA
:100D7000E1E0DE0609F6809152018823A9F0809116
:100D80005301909154010E946C13069768F0EAE4B5
:100D9000F1E08AE491E0D8012D918D0121938A1729
:100DA0009B07C9F7109252010E94CE0381E0DF91A8
:100DB000CF911F910F91FF90EF90DF90CF90BF9058
:100DC000089590E0BFCFE82FF0E0E65BFE4F808112
:100DD0000895089590935A01809359010895E091E0
:100DE0005901F0915A01309721F00190F081E02DE6
:100DF000099480E00895E0915901F0915A013097EB
:100E000021F00280F381E02D09940895E0915901C9
:100E1000F0915A01309721F00480F581E02D09947A
:100E2000089520915701309158012817390771F022
:100E30009093580180935701E0915901F0915A0124
:100E4000309721F00680F781E02D099408952091D4
:100E50005501309156012817390771F090935601CA
:100E600080935501E0915901F0915A01309721F09A
:100E70000084F185E02D0994089508950C943D07B0
:100E80000E9457130E9436060C941514BF92CF92FD
:100E9000DF92EF92FF920F931F93CF93DF93CDB723
:100EA000DEB72A970FB6F894DEBF0FBECDBF0E9403
:100EB00067068CE5C82E81E0D82E10E000E0B02E49
:100EC000802F0E94E306F82EF601E1906F01E816EC
:100ED00009F450C08091D40181FD0E94E906EF24FD
:100EE000E0FC45C0E1FE46C091E081E09E83BF8208
:100EF00021E030E0690102C0CC0CDD1C8A95E2F7EC
:100F00008F2D90E08C219D21892B09F420E02887EA
:100F10000E9460138160782F9A8789874E815F8154
:100F200068858A850E94E107F801E45AFE4F8081B6
:100F3000C826C0820E9498160E94EF0690915B011D
:100F4000891779F10E94EF0680935B012A960FB60C
:100F5000F894DEBF0FBECDBFDF91CF911F910F91EF
:100F6000FF90EF90DF90CF90BF900C94D20390E071
:100F700080E0BCCF0F5F1F4F0830110509F09FCFF5
:100F80008FEF89838A831B820E9460138160782F90
:100F90009D838C8349815A816B818D810E94E107F9
:100FA000C9CF2A960FB6F894DEBF0FBECDBFDF9132
:100FB000CF911F910F91FF90EF90DF90CF90BF9056
:100FC0000895CF93DF93CDB7DEB72B970FB6F89484
:100FD000DEBF0FBECDBF4F83588769877A878B8767
:100FE0001E821D8285E0FE013796DE01119601907A
:100FF0000D928A95E1F749815A816B817C818D81BF
:101000009E812B960FB6F894DEBF0FBECDBFDF9149
:10101000CF910C945E0E882309F4D8C0823871F405
:101020000E94EF0681FDD2C089E30E94AF110E94A9
:10103000771289E30E94EC110C947712833859F4EB
:101040000E94EF0680FDC2C083E50E94AF110E949E
:10105000771283E5EFCF843859F40E94EF0682FDC2
:10106000B5C087E40E94AF110E94771287E4E2CFF7
:101070009CEF980F913A18F40E94AF11DDCF90E2E7
:10108000980F983050F4877091E001C0990F8A95BD
:10109000EAF7892F0E942E12CFCF9BE5980F93304D
:1010A00070F4853A31F0863A39F083E890E00C9498
:1010B000110781E890E0FBCF82E890E0F8CF98E557
:1010C000980F953108F082C0883A09F440C0893AF7
:1010D00009F440C08A3A09F440C08B3A09F440C090
:1010E0008C3A09F440C08B3B09F440C08C3B09F4B6
:1010F00040C08D3A09F440C0803B09F440C08E3AAC
:1011000009F440C08F3A09F440C0813B09F440C063
:10111000823B09F440C0833B09F440C0843B09F49E
:1011200040C0853B09F440C0863B09F440C0873B82
:1011300009F440C0883B09F440C0893B09F440C031
:101140008A3B09F440C090E080E00C94270782EECF
:1011500090E0FBCF89EE90E0F8CF8AEE90E0F5CFFB
:1011600085EB90E0F2CF86EB90E0EFCF83EB90E061
:10117000ECCF84EB90E0E9CF87EB90E0E6CF8CEC0E
:1011800090E0E3CF8DEC90E0E0CF83E891E0DDCF1D
:101190008AE891E0DACF82E991E0D7CF84E991E063
:1011A000D4CF81E292E0D1CF83E292E0CECF84E24D
:1011B00092E0CBCF85E292E0C8CF86E292E0C5CF45
:1011C00087E292E0C2CF8AE292E0BFCF08958823FF
:1011D00009F44BC0823871F40E94EF0681FF45C0CC
:1011E00089E30E94AF110E94771289E30E94EC11FB
:1011F0000C947712833859F40E94EF0680FF35C0B3
:1012000083E50E94AF110E94771283E5EFCF843807
:1012100059F40E94EF0682FF28C087E40E94AF11B4
:101220000E94771287E4E2CF9CEF980F913AF0F298
:1012300090E2980F983050F4877091E001C0990FB8
:101240008A95EAF7892F0E943412D2CF9BE5980F36
:10125000933020F490E080E00C941107885A853197
:1012600020F490E080E00C9427070895882321F073
:101270000E942E120C9477120895882321F00E9468
:1012800034120C94771208958F929F92AF92BF926E
:10129000DF92EF92FF920F931F93CF93DF937C0126
:1012A000D62FC72FFC01058102950F7012811111F5
:1012B0000E944D120E94A811D82E882371F011238C
:1012C00021F180E28D0F883000F182E00E949211BE
:1012D0000E94A81191E0D82ED926EC2FE295EF704C
:1012E000F0E0EB58F64F0C94741F87098709D70973
:1012F000D709190A350AB409B409400AB409D80A49
:10130000D80A4B0BB409B409540BD12CE6CF0C2FDF
:101310000F70C07F11F00295007F1123A9F0002308
:1013200059F080E28D0F883010F0D11109C0802F64
:101330000E942E120E9477128D2F0E940B0814C05B
:10134000802F0E943F12F6CF8D2F0E94E7080023C6
:1013500059F080E28D0F883010F0D11124C0802F19
:101360000E9434120E947712DD2009F4A4C10E9469
:10137000851180FDA0C1F70112820E947F110E9499
:10138000FD0FC7010E94670B0E947F11DF91CF9173
:101390001F910F91FF90EF90DF90BF90AF909F90C3
:1013A0008F900C941E10802F0E944512DBCFFC2FD3
:1013B000FF70BF2EC07FC03219F0B29480EFB82208
:1013C000DD2369F0D13029F1112369F1002359F0AF
:1013D000F701858180FFB0CF8F70858304C0112312
:1013E00061F0011104C08B2D0E943609BDCF8B2DF9
:1013F0000130D1F70E946112B7CF011106C00E94DF
:1014000064128B2D0E943D09AFCF013009F4ACCF9F
:10141000F6CF112321F0063008F0A6CFE4CF053037
:1014200008F0A2CFEECF002361F38D2F0E94E708D2
:101430009BCF8C2F86958695837069F0813009F05B
:1014400093CF8D2F9C2F9370111102C090E080E0FC
:101450000E94270789CF8D2F9C2F9370111102C0F6
:1014600090E080E00E9411077FCF8D2F112329F09B
:101470000E94A1150E948D1677CF0E940916FACFFF
:101480008C2F837009F047C011116ECF2D2F22953C
:1014900026952770220F220F6D2F6F70862E912CAC
:1014A000B12CA12C022E04C0880C991CAA1CBB1CB8
:1014B0000A94D2F760E070E0CB01D4FF0FC06FE078
:1014C00070E080E090E004C0660F771F881F991FCE
:1014D0002A95D2F76095709580959095C695C6959A
:1014E000C370C23051F080F4682979298A299B2978
:1014F000C13071F00E94A60F37CF682979298A2957
:101500009B290E94C20F30CF0E94A60FC501B401D3
:101510000E948A0F29CF8695112311F08C2F81709C
:10152000882309F421CF2D2F229526952770220F8D
:10153000220F6D2F6F70862E912CB12CA12C022EB4
:1015400004C0880C991CAA1CBB1C0A94D2F760E04A
:1015500070E0CB01D4FF0FC06FE070E080E090E05E
:1015600004C0660F771F881F991F2A95D2F76095D0
:10157000709580959095C695C695C370C23051F010
:1015800080F4682979298A299B29C13071F00E9449
:101590008010EACE682979298A299B290E949C100B
:1015A000E3CE0E948010C501B4010E946410DCCE1D
:1015B000E0E2ED0FE53108F062C0F0E0EE51F54FEA
:1015C0000C94741FF70AF70AF70AF70AF70AF70AE2
:1015D000F70AF70AF70AF70AF70AF70AF70AF70A03
:1015E000F70AF70A040B120B190B200B2A0BDF70FA
:1015F0008C2F8F71112321F00E94FD0F8D2FF4CEBF
:101600000E941E108D2FFECE112341F0053008F0F0
:10161000ABCE8C2F8F710E944310A6CE063008F0FF
:10162000A3CEF7CF8C2F8F71112339F00E94FD0FBD
:101630009BCE8C2F8F711123C9F30E941E1094CE64
:10164000112329F08C2F8F710E94E80F8DCE0E94FC
:10165000DE0F8ACE112349F0CF718C2F0E94FD0F2F
:1016600063E08C2F0E9489117FCE81E00E9492114D
:10167000023008F479CE82E00E94921175CE1123D7
:1016800029F0011159CE8C2F8F71D0CF0111CDCE01
:101690008C2F8F71D2CF4C2F4F706D2FC7010E94AE
:1016A00075020E94070F60CE4C2F4F706D2FC7013F
:1016B0000E94D40359CEDF91CF911F910F91FF90DB
:1016C000EF90DF90BF90AF909F908F9008950F9311
:1016D0001F93CF93DF93EC01988189812B813C810B
:1016E000232B39F08F3F19F481E09F3F19F080E000
:1016F00001C081E080FD17C0CE010E948E028823C8
:1017000091F0688179818A810E945B118C010E942D
:10171000B8100E947F0FB801CE01DF91CF911F91C9
:101720000F910C944409DF91CF911F910F9108956F
:101730000E944D120E945E120E9420120E94771297
:101740000E943A170E948D1690E080E00E941107D7
:1017500090E080E00C9427070E943C120C94980BB8
:101760000E945111E92FE295EF70E250EE30E0F463
:10177000F0E0E354F44F0C94741FCB0BCB0BD40B61
:10178000D40BD60BD40BD40BD40BCB0BCB0BDB0B6A
:10179000D40BD40BDB0B803F19F020F4803E20F4F7
:1017A00081E00895843FE1F380E00895803EC0F336
:1017B000813FD1F7F5CF93FB882780F90895CF9328
:1017C000DF9300D000D01F92CDB7DEB70F900F90FF
:1017D0000F900F900F90DF91CF910895CF93DF93EB
:1017E00000D000D000D0CDB7DEB726960FB6F89463
:1017F000DEBF0FBECDBFDF91CF9108951F93CF9372
:10180000DF93C091650116E0809166018C1304C0DE
:10181000DF91CF911F910895D0E01C9FF0011D9F93
:10182000F00D1124E959FE4F40815181628173818D
:10183000848195810E94EE0B2196C770E5CF40917F
:101840009701509198016091990170919A0180914E
:101850009B0190919C010C94EE0B1F93CF93DF930F
:1018600080919C01807FD1F4809199018823B1F00F
:1018700080916501D0916601B0919701C091980166
:1018800040919A0150919B01A1E0BF3F09F0A0E077
:10189000BA016095709516E0D81304C0DF91CF911E
:1018A0001F91089521E04115510521F02A2FCF3FC6
:1018B00009F020E090E020FD38C0189FF001199F4A
:1018C000F00D1124E959FE4F21812C132EC02081E7
:1018D0002B132BC02281211128C02381348124178E
:1018E000350700F1241B350B283C3105F0F420911D
:1018F0009C012F70206120939C0126E0289FF0011D
:10190000299FF00D1124E459FE4F80818F70806172
:10191000808387E991E00E94670BDF91CF911F914F
:101920000C94FE0B260F371FDFCF01968770B4CFC4
:10193000AF92BF92CF92DF92EF92FF920F931F93DD
:10194000CF93DF93CDB7DEB761970FB6F894DEBFC4
:101950000FBECDBF8C0185E0F801DE011D96019020
:101960000D928A95E1F7D8014C9111965C911197EF
:101970001296EC90309197016091980180919A01B4
:1019800090919B0121E0009731F06F3F19F421E025
:101990003F3F09F020E0B22FB170BB2E20FD80C187
:1019A000F801C380D480A0909901AA2009F427C12E
:1019B000C816D906D0F1D601A81BB90BCD01FF245A
:1019C000F394883C910508F0F12C80919C01982FAC
:1019D000907FFF2009F4CAC0911187C0FE2C6513C7
:1019E00029C0341327C0E11025C08F708061809317
:1019F0009C010E941F0C87E991E00E94670B809177
:101A00009C01F80185838F2D61960FB6F894DEBF97
:101A10000FBECDBFDF91CF911F910F91FF90EF903F
:101A2000DF90CF90BF90AF900895809590958C0DEA
:101A30009D1DC5CF81E0CD2831F05F3F19F481E0D5
:101A40004F3F09F080E080FD24C081E08E25F82F13
:101A5000F170DF2E80FF3FC080916501209166010B
:101A600036E0821318C04D875E878D859E850E9463
:101A70005111292F22952F70223008F1243030F592
:101A80009F7009F1D80115969C91907FE1F4FB2C91
:101A9000BACF80E0DCCF90E0389FF001399FF00DA5
:101AA0001124E959FE4F6181561306C06081461327
:101AB00003C062816E110FC001968770D2CF9F70F4
:101AC00011F0882321F3805E883008F3C8010E945A
:101AD000670BBD2CDCCFEE2009F495CF80919C01E3
:101AE000816080939C01F12C8ECF651312C034135A
:101AF00010C0E1100EC0F8018583C8010E94670B79
:101B000086E0F801A7E9B1E001900D928A95E1F72E
:101B100041C04D875E878D859E850E94B00B8823CE
:101B200009F4C8C0EE2009F4C5C080919C01803240
:101B300070F0209197013091980138872F83198692
:101B4000DB86CA868C87CE0107960E94670B86E0EB
:101B5000F801A7E9B1E001900D928A95E1F70E94A2
:101B60002D0C0E941F0CFF24F3944DCF911115C032
:101B70007C2DD98AC88A6E2D89890E94DF0B87E95E
:101B800091E00E94670B86E0E7E9F1E0DF011D923A
:101B90008A95E9F70E941F0C36CF651312C03413E3
:101BA00010C0E1100EC0F8018583C8010E94670BC8
:101BB000E7E9F1E086E0DF011D928A95E9F7FA2C6A
:101BC00022CF4D875E878D859E850E94B00B88232E
:101BD00009F470C0EE2009F46DC080919C01803240
:101BE00008F4B5CF20919701309198013A83298369
:101BF0001B82DD82CC828E83CE010196A6CFC816D1
:101C0000D90638F1F601E81BF90BCF01F12C883C1D
:101C1000910508F03DC0FE2CEE2009F44BC0651381
:101C200026C0341324C080919C0180FD17C0982FDA
:101C3000907FA1F0D80115968C931597903F09F4E9
:101C40005CCF982F907F905F8F70892B15968C9327
:101C500054CF809590958C0D9D1DD8CF86E0F801CE
:101C6000A7E9B1E001900D928A95E1F7CCCE4D87BE
:101C70005E878D859E850E94B00B811168CF809113
:101C80009C01816080939C01C8010E94670BBBCEC0
:101C90007C2DD98AC88A6E2D89890E94DF0B73CF6B
:101CA000EE2041F04D875E878D859E850E94B00BAA
:101CB00081114DCFC8010E94670B55CF1F93CF9361
:101CC000DF93CDB7DEB72C970FB6F894DEBF0FBE0B
:101CD000CDBF4F83588769877A878B879C87CE01D2
:101CE00007960E94980C882309F442C09F8188853A
:101CF0002A853B85232B39F08F3F19F481E09F3FE4
:101D000019F080E001C081E080FD08C04F81588556
:101D100069857A858B859C850E94EE0B16E0809103
:101D2000650190916601891709F467C0819FC00120
:101D3000112489599E4F0E94980C882309F45DC094
:101D4000E09165011E9FF0011124E959FE4F408189
:101D5000518162817381848195810E94EE0B809113
:101D6000650190E001968770992780936501D7CF30
:101D700086E0FE013796DE01119601900D928A955C
:101D8000E1F79F8188852A853B85232B39F08F3F9A
:101D900019F481E09F3F19F080E001C081E080FDEF
:101DA000BDCF2091660130E0C90101968770992767
:101DB000409165014817190699F096E0929FD0016D
:101DC000939FB00D1124A959BE4FFE013196019089
:101DD0000D929A95E1F7809366010E94FE0B9ECFCB
:101DE0000E94AC0B109266011092650186E0E7E953
:101DF000F1E0DF011D928A95E9F72C960FB6F89471
:101E0000DEBF0FBECDBFDF91CF911F910895EF923E
:101E1000FF920F931F93CF93DF938C01892B81F057
:101E2000F12CEE24E394E8012196F80184918437A3
:101E300070F4843008F05FC08130B1F08230A1F1DD
:101E4000DF91CF911F910F91FF90EF90089585370B
:101E500009F44CC008F43DC09CE7980F903780F718
:101E60008F770E94E70849C00E5F1F4FFE018491E3
:101E700090E2980F983060F48770FE2D01C0FF0F3C
:101E80008A95EAF78F2F0E9450120E94771202C0A3
:101E90000E940B088F2D815030F2EFE9FFE031975F
:101EA000F1F700C00000F7CF0E5F1F4FFE018491D5
:101EB00090E2980F983050F48770FE2D01C0FF0F0C
:101EC0008A95EAF78F2F0E945612DFCF0E94E7080B
:101ED000E1CF0E5F1F4FFE01C491C150D8F28FE9D0
:101EE0009FE00197F1F700C00000F7CF0E5F1F4F92
:101EF000FE01F490CFCF0E940B088E01CBCF089546
:101F00006093AB017093AC018093AD019093AE01EF
:101F10000C94980B0F931F930091AB011091AC019F
:101F20002091AD013091AE01DC01CB01802B912BD2
:101F3000A22BB32B8093AB019093AC01A093AD0186
:101F4000B093AE011F910F910C94980B0F931F93B8
:101F50000091AB011091AC012091AD013091AE0127
:101F6000DC01CB0180239123A223B3238093AB0117
:101F70009093AC01A093AD01B093AE011F910F916E
:101F80000C94980B0F931F930091AB011091AC012F
:101F90002091AD013091AE01DC01CB01802791276A
:101FA000A227B3278093AB019093AC01A093AD011E
:101FB000B093AE011F910F910C94980B1092A70152
:101FC0001092A8011092A9011092AA010C94980BEA
:101FD00041E050E060E070E004C0440F551F661F10
:101FE000771F8A95D2F74093A7015093A801609379
:101FF000A9017093AA010C94980B41E050E060E0B5
:1020000070E004C0440F551F661F771F8A95D2F7F2
:102010008091A7019091A801A091A901B091AA0176
:10202000842B952BA62BB72B8093A7019093A80107
:10203000A093A901B093AA010C94980B41E050E041
:1020400060E070E004C0440F551F661F771F8A953B
:10205000D2F740955095609570958091A701909129
:10206000A801A091A901B091AA0184239523A623D8
:10207000B7238093A7019093A801A093A901B093DF
:10208000AA010C94980B41E050E060E070E004C0BD
:10209000440F551F661F771F8A95D2F78091A701BD
:1020A0009091A801A091A901B091AA018427952738
:1020B000A627B7278093A7019093A801A093A90111
:1020C000B093AA010C94980B0F931F930091A70152
:1020D0001091A8012091A9013091AA01DC01CB0146
:1020E000802B912BA22BB32B8093A7019093A80157
:1020F000A093A901B093AA011F910F910C94980B82
:102100000F931F930091A7011091A8012091A9019D
:102110003091AA01DC01CB0180239123A223B323B8
:102120008093A7019093A801A093A901B093AA015D
:102130001F910F910C94980B0F931F930091A7017F
:102140001091A8012091A9013091AA01DC01CB01D5
:1021500080279127A227B3278093A7019093A801F6
:10216000A093A901B093AA011F910F910C94980B11
:102170000895990F890F982F977071E001C0770F1C
:102180009A95EAF786958695869525E0829FC00107
:10219000112450E040E0A62FB0E0FC01E40FF51F51
:1021A000E356FE4F60819D01042E02C036952795AF
:1021B0000A94E2F7217021952627272326272083DA
:1021C0004F5F5F4F4530510541F70895990F890FD3
:1021D000982F977086958695869525E0829FA00119
:1021E000112470E060E080E0FA01E60FF71FE3568B
:1021F000FE4F208130E0092E02C0369527950A94C3
:10220000E2F721703327062E01C0220F0A94EAF765
:10221000822B6F5F7F4F6530710531F70895BF9254
:10222000CF92DF92EF92FF920F931F93CF93DF93A2
:102230008C01C090A701D090A801E090A901F09076
:10224000AA018091AB019091AC01A091AD01B09138
:10225000AE01C82AD92AEA2AFB2ACFE1D0E0BC2E57
:10226000D701C6010C2E04C0B695A7959795879502
:102270000A94D2F780FD0EC0219788F7B12C8B2DE0
:10228000DF91CF911F910F91FF90EF90DF90CF9052
:10229000BF900895B8018C2F0E94EF03019761F35E
:1022A000EECFCF93DF93EC010E940F11BE01DF91BF
:1022B000CF910C94EF031F93CF93DF93EB01909199
:1022C0006401992331F0CB01DF91CF911F910C94E0
:1022D0005111882379F0CB010E940F11182F682F1C
:1022E000CE010E94B910BE01812FDF91CF911F91C5
:1022F0000C94EF03CB010E94E610182FF4CF8091CD
:10230000AF0185958595859508958091AF0187707A
:10231000089598E0899F90011124622B6093AF018A
:102320000C94FD0F9091AF01809589238093AF01AC
:10233000282F277061F4282F082E000C330B9217DA
:10234000130629F08595859585950C941E100895A2
:102350009091AF01977081E009F480E00895909129
:1023600012019923E1F09091050297FF18C0E82F20
:10237000E695E695E695EF3139F12091000130912F
:102380000101E20FF32FF11D877021E030E001C061
:10239000220F8A95EAF78181822B8183089520910B
:1023A000000130910101F90132969FEF40E0519117
:1023B000851751F09F3F19F4511101C0942F4F5FC1
:1023C0004E31A9F79F3F09F40895290F311D97FD5C
:1023D0003A95F90182830895909112019923F1F0C1
:1023E0009091050297FF1AC0E82FE695E695E695CD
:1023F000EF3129F12091000130910101E20FF32F1B
:10240000F11D282F277081E090E001C0880F2A95E8
:10241000EAF78095918189238183089520910001B5
:1024200030910101F9013296205E3F4F919189135D
:1024300003C0DF0111971C92E217F307B9F7089563
:1024400081E090E0E0910001F0910101E80FF91FB7
:102450001082019680329105A9F708959091D301D9
:10246000892B8093D3010895982F90958091D30163
:1024700089238093D30108951092D30108959091F8
:10248000D201892B8093D2010895982F9095809145
:10249000D20189238093D20108951092D201089528
:1024A0009091D101892B8093D1010895982F909517
:1024B0008091D10189238093D10108951092D10197
:1024C00008958093B00108951092B001089520916D
:1024D000000130910101F9013196205E3F4F80E00B
:1024E000919191118F5FE217F307D1F70895E09171
:1024F0000001F09101018091D3018083E0910001FE
:10250000F091010180819091D201892B8083E0912B
:102510000001F091010180819091D101892B80838C
:102520009091B001992361F0E0910001F0910101D7
:102530008081892B80830E94671281111092B001E3
:1025400080910001909101010C94FB066DEE7EEFED
:1025500090E080E00E94AE1F60E082E090E00E9488
:102560009C1F60E083E090E00E949C1F60E084E09C
:1025700090E00E949C1F60E085E090E00C949C1F1E
:1025800090E080E00E94961F21E08D3E9E4F09F072
:1025900020E0822F089582E090E00C948E1F682F37
:1025A00082E090E00C949C1F83E090E00C948E1FDE
:1025B000682F83E090E00C949C1F84E090E00C94E2
:1025C0008E1F682F84E090E00C949C1F80910B027A
:1025D000843039F11092D50188E190E020E40FB603
:1025E000F894A895809360000FBE2093600080E06F
:1025F0000E94D20383B7817F846083BF83B78160E9
:1026000083BF7894889583B78E7F83BF0FB6F89485
:10261000A8958091600088618093600010926000AE
:102620000FBE089508950895CF930E9412130E943B
:1026300067060E941313C0E08C2F0E94E3068111ED
:1026400005C0CF5FC830C1F7CF91089581E0FCCFBE
:102650000E94AC0B0E94EF060C94D2031F920F92C3
:102660000FB60F9211248F939F93AF93BF938091D6
:10267000D501811113C08091010290910202A091B5
:102680000302B09104024196A11DB11D8093010285
:1026900090930202A0930302B0930402BF91AF9102
:1026A0009F918F910F900FBE0F901F90189582E011
:1026B00084BD93E095BD9AEF97BD80936E00089519
:1026C0002FB7F8948091010290910202A091030229
:1026D000B09104022FBF0895CF92DF92EF92FF9244
:1026E0000F931F932FB7F89440910102509102026B
:1026F00060910302709104022FBF6A017B01EE24F6
:10270000FF248C0130E020E0C016D106E206F3067B
:1027100050F0481B590BCA011F910F91FF90EF9089
:10272000DF90CF90089541505109F3CF1F920F923F
:102730000FB60F9211248F939F93AF93BF93809105
:10274000010290910202A0910302B091040201964D
:10275000A11DB11D8093010290930202A093030278
:10276000B0930402BF91AF919F918F910F900FBED4
:102770000F901F9018950E94341BF8942FEF87EA52
:1027800091E6215080409040E1F700C0000087E0D2
:1027900090EBDC018093140290931502A093160233
:1027A000B093170288E19CE00FB6F894A895809347
:1027B00060000FBE90936000FFCF0F931F93CF93E5
:1027C000DF93C0E0082F10E08C2F0E94E306D82F83
:1027D00080FF08C060E07C2F80E00E94D5030817CE
:1027E000190799F0D1FD09C0CF5FC83069F780E0C3
:1027F000DF91CF911F910F91089561E07C2F80E0D0
:102800000E94D5030817190779F781E0F1CFCF931C
:10281000C82F8CE20E94DD13882321F08C2FCF91EA
:102820000C94DD1380E0CF910895CF930E94C012E5
:10283000811102C00E94A612C5E608C00E94670668
:102840008FE39CE90197F1F700C00000C150B1F798
:1028500089E20E9407148111EFC08AE20E940714E6
:1028600081110E94A61285E00E94071481110E9426
:10287000BB130E94CB128093D40187E00E940714FF
:10288000882371F08BE10E940714882309F4B1C0FA
:102890009091D401892F8D7F91FF82608093D40124
:1028A0008091D4010E94CF120E94DD1290E090939B
:1028B00006028093050280EE0E940714882341F0EF
:1028C00090910502892F8E7F90FF81608093050291
:1028D00089E30E940714882341F090910502892F13
:1028E0008D7F91FF82608093050282EE0E94071423
:1028F000882341F090910502892F8B7F92FF84609D
:102900008093050286EE0E940714882341F090917F
:102910000502892F877F93FF88608093050283EEED
:102920000E940714882341F090910502892F8F7E21
:1029300094FF80618093050285E30E940714882339
:1029400041F090910502892F8F7D95FF80628093E1
:10295000050281E30E940714882341F0909105024B
:10296000892F8F7B96FF80648093050281E10E940E
:102970000714882341F090910502892F97FB87F96E
:10298000805880930502809105020E94E11287E23F
:102990000E940714C82F8EE10E9407148111C260A3
:1029A0008FE10E9407148111C46080E20E94071425
:1029B0008111C86081E20E9407148111C06182E226
:1029C0000E9407148111C06283E20E9407148111E2
:1029D000C06484E20E940714882341F1C0688C2FF0
:1029E0000E94D8126C2F70E090E080E0CF910C94A0
:1029F000800F8EE00E940714882339F09091D40153
:102A0000892F8B7F92FF846049CF80E10E94071459
:102A10009091D401882329F0892F877F93FF8860C4
:102A20003DCF892F8E7F90FF816038CFC111D7CFE6
:102A30000E94D412682FD7CFCF9108958091D801EA
:102A400080FF12C06091050185E0689FB0011124EC
:102A5000759567957595679560387105A8F5611549
:102A60007105A1F1862F089581FF09C060910501CC
:102A700085E0689FB001112475956795EDCF82FFC1
:102A800007C06091050185E0689FB0011124E4CF83
:102A90002091D9012223A9F09091040160910501B0
:102AA00085E0689FB00111242917B0F6269FA00188
:102AB000279F500D1124692F70E0CA010E94601FEA
:102AC000CBCF65E070E0CECF8FE7089581E0089529
:102AD0008091D80180FF0CC06091030170E0759572
:102AE0006795759567956115710549F1862F08956C
:102AF00081FF06C06091030170E075956795F3CF83
:102B00006091030182FD0BC09091D9019923A1F03E
:102B10006091020180910301961738F0682F70E0F0
:102B20006038710500F38FE70895899FC001112473
:102B300070E00E94601FF4CF61E070E0D7CF81E0C9
:102B40000895803F31F40E941E1581958093DC0129
:102B50000895813F19F40E941E15F8CF823F31F489
:102B60000E941E1581958093DB010895833F19F41F
:102B70000E941E15F8CF893F29F40E9468158093A2
:102B8000DD0108958A3F21F40E9468158195F7CFF1
:102B90008B3F31F40E94681581958093DE01089582
:102BA0008C3F19F40E946815F8CF843F31F480916E
:102BB000DA0181608093DA010895853F21F48091E4
:102BC000DA018260F7CF863F21F48091DA018460D8
:102BD000F1CF873F21F48091DA018860EBCF883F05
:102BE00021F48091DA018061E5CF8D3F31F480914D
:102BF000D80181608093D80108958E3F21F480919F
:102C0000D8018260F7CF8F3FB9F78091D8018460F7
:102C1000F1CF803FC1F48091DC0187FD1092DC018F
:102C20008091DB0181110EC08091DC0181110AC00D
:102C30008091DD01811106C08091DE01811102C009
:102C40001092D9010895813F29F48091DC01181672
:102C50002CF3E6CF9091DB01823F29F497FFE0CF80
:102C60001092DB01DDCF833F19F41916CCF3D8CFD6
:102C7000893F39F48091DD01181694F61092DD0138
:102C8000CFCF8A3F29F48091DD0187FFC9CFF6CFEE
:102C90008B3F39F48091DE0187FFC2CF1092DE01B5
:102CA000BFCF8C3F29F48091DE011816BCF3B8CF5A
:102CB000843F31F48091DA018E7F8093DA01B0CFC6
:102CC000853F21F48091DA018D7FF7CF863F21F493
:102CD0008091DA018B7FF1CF873F21F48091DA0177
:102CE000877FEBCF883F21F48091DA018F7EE5CF9B
:102CF0008D3F31F48091D8018E7F8093D80190CFA1
:102D00008E3F21F48091D8018D7FF7CF8F3F09F05E
:102D100087CF8091D8018B7FF0CF8AED91E00E9420
:102D200006070E9460139093D7018093D6010895FF
:102D30001F93CF93DF938091D6019091D7010E948A
:102D40006C13AC019091D9012091060130E09111F2
:102D500006C0209107018AE0289F900111244217A4
:102D6000530780F08091DB01C091DC011091DD01FF
:102D7000D091DE0181110AC0C11178C0111176C055
:102D8000D11174C0DF91CF911F9108959F3F19F029
:102D90009F5F9093D901181624F40E941E1580930A
:102DA000DB018091DB0187FF05C00E941E15819524
:102DB0008093DB011C1624F40E941E158093DC0115
:102DC0008091DC0187FF05C00E941E1581958093CC
:102DD000DC016091DB01662331F1C091DC01CC2381
:102DE00011F1062E000C770B880B990B0E94671EC1
:102DF00023E333E343E35FE30E94CB1E0E942F1ED5
:102E00006093DB016C2FCC0F770B880B990B0E9422
:102E1000671E23E333E343E35FE30E94CB1E0E947C
:102E20002F1E6093DC01111624F40E946815809314
:102E3000DD018091DD0187FF05C00E946815819545
:102E40008093DD011D1624F40E9468158093DE0135
:102E50008091DE0187FF05C00E94681581958093EF
:102E6000DE01DF91CF911F910C948D169F3F09F0E9
:102E70008FCFA0CF85E0EAEDF1E0DF011D928A95CA
:102E8000E9F71092D9011092D80108958091FF01BD
:102E90000895CF93DF9300D01F92CDB7DEB79C018A
:102EA00080910B02843019F593E099833B832A8348
:102EB0009093E9008FEF9091E800815095FD06C056
:102EC00095ED9A95F1F700008111F5CF8091E8001A
:102ED00085FF0DC050E040E063E070E0CE01019658
:102EE0000E94A4198091E8008E778093E8000F90EB
:102EF0000F900F90DF91CF910895CF93DF9300D083
:102F00001F92CDB7DEB720910B02243031F522E0BD
:102F10002983805891099B838A8383E08093E90009
:102F20008FEF9091E800815095FD06C095ED9A9540
:102F3000F1F700008111F5CF8091E80085FF0DC009
:102F400050E040E063E070E0CE0101960E94A419D9
:102F50008091E8008E778093E8000F900F900F909B
:102F6000DF91CF9108959C0180910B028430F9F498
:102F700082E08093E9009FEF8091E800915085FD09
:102F800006C085ED8A95F1F700009111F5CF80918B
:102F9000E80085FF0CC050E040E065E070E0C9014A
:102FA0000E94A4198091E8008E778093E80008952C
:102FB000CF93DF93EC0180910B028430F1F4909178
:102FC00012019923E9F09091050297FF19C08093AF
:102FD000E9008FEF9091E800815095FD06C095E1E2
:102FE0009A95F1F700008111F5CF8091E80050E04B
:102FF00040E060E270E085FD1AC0DF91CF91089556
:1030000081E08093E9008FEF9091E800815095FD79
:1030100006C095ED9A95F1F700008111F5CF8091EA
:10302000E80085FFEACF50E040E068E070E0CE01C4
:103030000E94A4198091E8008E778093E80080E2D6
:10304000FE01AFEDB1E001900D928A95E1F7D5CF89
:1030500080910A02811109C00E94341B0E94911BB9
:103060008091E20084608093E200089510920A0249
:103070000895089508950C94281342E061EC81E0CE
:103080000E94B21A42E061EC82E00E94B21A42E071
:1030900061EC83E00E94B21A42E261EC84E00C949D
:1030A000B21A80910D02833009F455C030F481309A
:1030B00071F1823009F491C008958A3009F47DC01D
:1030C0008B3009F463C0893009F044C080910C0250
:1030D000813209F03FC08091100290911102009757
:1030E00011F00397B9F58091E800877F8093E8009D
:1030F0008091E80082FF2AC08091F1008093FF0157
:103100008091E8008B778093E8000C94E61A809118
:103110000C02813AF9F48091E800877F8093E800FF
:103120008091100290911102892B61F460E28FED81
:1031300091E070E00E94F3198091E8008B77809312
:10314000E800089560E090E080E0F3CF80910B020A
:103150008111CECF089580910C02813AD9F78091E8
:10316000100290911102892BA9F78091E800877FC6
:103170008093E8008091E80080FFFCCF80911201ED
:103180008093F1008091E8008E77BDCF80910C0292
:10319000813201F78091100290911102892BD1F6B2
:1031A0008091E800877F8093E8000E94E61A809172
:1031B0000E02809312010C94AC0B80910C028132B0
:1031C00049F68091E800877F8093E8000E94E61A24
:1031D00080910F0280930002089580910C02813A41
:1031E00009F0B8CF8091E800877F8093E800809154
:1031F000E80080FFFCCF80910002C2CF84B7877FB8
:1032000084BF0FB6F894A895809160008861809380
:103210006000109260000FBE80E880936100109201
:1032200061000E943E070E94341B0E94911B809106
:10323000E20084608093E20078940E94131E0E9452
:10324000400788E091E00E94EA0680910B028530F9
:1032500019F00E944607F9CF0E94E61280910902F8
:10326000882399F30E941413882379F30E948E19FE
:10327000ECCF292F33272330310579F158F4213051
:103280003105F1F02230310519F190E080E030E0B5
:1032900020E01AC02132310599F122323105A9F717
:1032A000643098F770E0FB01EE0FFF1FE15EFE4F08
:1032B00020813181655E7E4FFB01808190E004C0FA
:1032C00082E190E029E433E0FA013183208308951C
:1032D0008DE690E02CED32E0F7CF99278130910513
:1032E00061F028F0029789F6ECEAF2E002C0E8ED1E
:1032F000F2E0849190E09F01E7CFE0ECF2E0F9CFBB
:10330000643008F0C2CFE62FF0E0EE0FFF1FE95D5A
:10331000FE4F2081318189E090E0D6CF80E189BDE8
:1033200082E189BD09B400FEFDCF8091D8008F7D78
:103330008093D8008091E00082608093E0008091CB
:10334000E00081FDFCCF0895AF92BF92CF92DF9253
:10335000FF920F931F93CF93DF936C01EB018A01D0
:103360000E94051BF82E811123C00115110539F0AB
:10337000F80180819181C81BD90BC80ED91EB12CD0
:10338000A12C2097A9F08091E80085FD22C08091B2
:10339000E8008E778093E80001151105A1F0F8018F
:1033A00080819181A80EB91EB182A08285E0F82E9D
:1033B0008F2DDF91CF911F910F91FF90DF90CF90D4
:1033C000BF90AF9008950E94051B8823D1F2F82E7C
:1033D000EFCFF60181916F018093F1002197FFEF0C
:1033E000AF1ABF0ACECFFC01809112029091130256
:1033F00086179707A0F06115710529F49091E800F0
:103400009E779093E80090E06115710551F4911159
:1034100008C08091E80082FF35C080E00895BC01BB
:10342000F2CF80910B028823C9F18530C9F18091D8
:10343000E80083FD31C08091E80082FDEACF8091F1
:10344000E80080FFE1CF2091F3008091F200322F5D
:10345000282F6115710519F02830310558F091E0D9
:103460002830310509F090E02091E8002E77209374
:10347000E800CACF81918093F100615071092F5FFC
:103480003F4FE7CF80910B02882341F0853041F018
:103490008091E80083FFBDCF81E0089582E0089528
:1034A00083E00895FC018091120290911302861727
:1034B0009707A0F06115710529F48091E8008E77D7
:1034C0008093E80090E06115710551F4911108C0F6
:1034D0008091E80082FF36C080E00895BC01F2CF01
:1034E00080910B028823D1F18530D1F18091E800E1
:1034F00083FD32C08091E80082FDEACF8091E80030
:1035000080FFE1CF2091F3008091F200322F282F2D
:103510006115710519F02830310558F091E0283017
:10352000310509F090E08091E8008E778093E80003
:10353000CACF84918093F1003196615071092F5F59
:103540003F4FE6CF80910B02882341F0853041F058
:103550008091E80083FFBCCF81E0089582E0089568
:1035600083E00895982F973028F08F708093E900BA
:1035700081E008959093E900242F762F50E098176A
:1035800031F07091EC002091ED005091F00021FDA0
:1035900002C09F5FE8CF3091EB003E7F3093EB009D
:1035A0003091ED003D7F3093ED003091EB003160C4
:1035B0003093EB007093EC002093ED005093F000FB
:1035C0002091EE0027FDE5CF80E0089580910C0268
:1035D00087FF13C08091E80082FF06C08091E80059
:1035E0008B778093E80004C080910B028111F2CFA9
:1035F000089580910B028823D9F38091E80080FF21
:10360000F8CF8091E8008E77ECCF2091E4003091E4
:10361000E50085E69091EC0090FF06C09091E800EF
:1036200090FF06C080E008959091E80092FDFACFE7
:1036300090910B02992391F0953091F09091EB00CD
:1036400095FD10C04091E4005091E5002417350726
:1036500009F381509A01F1F684E0089582E008951B
:1036600083E0089581E008950E94A21B0E94AA1B96
:10367000E0EEF0E0808181608083E8EDF0E0808121
:103680008F77808319BCA7EDB0E08C918E7F8C93EF
:1036900080818F7E808310920A0208950F931F937A
:1036A000CF93DF930E94A21B0E94AA1BC8EDD0E01B
:1036B00088818F77888388818068888388818F7DDF
:1036C000888319BC10920B02109207021092090213
:1036D0001092080200EE10E0F80180818B7F808359
:1036E00088818160888342E060E080E00E94B21AB5
:1036F000E1EEF0E080818E7F8083E2EEF0E0808179
:1037000081608083808188608083F80180818E7FE2
:103710008083888180618883DF91CF911F910F9191
:103720000895E8EDF0E080818F7E8083E7EDF0E0A2
:1037300080818160808384E082BF81E080930A027F
:103740000C944E1BE8EDF0E080818E7F8083109218
:10375000E20008951092DA001092E10008951F929D
:103760000F920FB60F9211242F933F934F935F93B5
:103770006F937F938F939F93AF93BF93EF93FF9339
:103780008091E10082FF0BC08091E20082FF07C0C0
:103790008091E1008B7F8093E1000E94121E809156
:1037A000DA0080FF19C08091D80080FF15C0809199
:1037B000DA008E7F8093DA008091D90080FF94C078
:1037C00080E189BD82E189BD09B400FEFDCF81E0C1
:1037D00080930B020E9428188091E10080FF19C09D
:1037E0008091E20080FF15C08091E2008E7F80937F
:1037F000E2008091E20080618093E2008091D80035
:1038000080628093D80019BC85E080930B020E94EF
:103810003A188091E10084FF29C08091E20084FF82
:1038200025C080E189BD82E189BD09B400FEFDCFDC
:103830008091D8008F7D8093D8008091E1008F7EA9
:103840008093E1008091E2008F7E8093E20080917E
:10385000E20081608093E20080910702882309F4EE
:1038600049C084E080930B020E943B188091E100E4
:1038700083FF29C08091E20083FF25C08091E10091
:10388000877F8093E10082E080930B021092070211
:103890008091E1008E7F8093E1008091E2008E7F35
:1038A0008093E2008091E20080618093E20042E038
:1038B00060E080E00E94B21A8091F00088608093FE
:1038C000F0000E943918FF91EF91BF91AF919F9145
:1038D0008F917F916F915F914F913F912F910F90B9
:1038E0000FBE0F901F90189519BC10920B020E94EA
:1038F000361872CF8091E30087FD02C081E0B2CF1D
:1039000083E0B0CF1F920F920FB60F9211242F9326
:103910003F934F935F936F937F938F939F93AF9357
:10392000BF93CF93EF93FF93C091E900CF70809145
:10393000EC001092E9008091F000877F8093F00006
:1039400078940E94BE1C1092E9008091F00088607B
:103950008093F000C093E900FF91EF91CF91BF9168
:10396000AF919F918F917F916F915F914F913F9117
:103970002F910F900FBE0F901F9018951F93CF930C
:10398000DF93CDB7DEB7AA970FB6F894DEBF0FBEB0
:10399000CDBFECE0F2E08091F100819322E0E431D0
:1039A000F207C9F70E9451188091E80083FF42C0D6
:1039B00080910C0290910D029A3008F03BC0E92FE3
:1039C000F0E0EB51F34E0C94741FEF1C131D1A1D05
:1039D000131D1A1D6E1D901D1A1DE51DF21D803848
:1039E00079F0823839F5809110028F708093E90068
:1039F0008091EB0085FB882780F91092E90006C0D2
:103A00008091080290910902911182609091E800E2
:103A1000977F9093E8008093F1001092F1008091DD
:103A2000E8008E772DC0282F2D7F21F48823D1F038
:103A3000823059F18091E80083FF0AC08091E8004C
:103A4000877F8093E8008091EB0080628093EB0099
:103A5000AA960FB6F894DEBF0FBECDBFDF91CF910F
:103A60001F91089580910E02813021F7933009F063
:103A700080E0809309021092E9008091E800877F3E
:103A80008093E8000E94E61AD5CF80910E02811142
:103A9000F2CF809110028F7069F28093E90020913B
:103AA000EB0020FFE8CF933031F48091EB0080628F
:103AB0008093EB00E0CF9091EB0090619093EB004E
:103AC00021E030E001C0220F8A95EAF72093EA0056
:103AD0001092EA008091EB008860EACF8111AACFB2
:103AE00010910E021F778091E3008078812B8093E4
:103AF000E3008091E800877F8093E8000E94E61A47
:103B00008091E80080FFFCCF8091E3008068809383
:103B1000E30083E0111101C082E080930B028ACFA1
:103B20008058823008F086CF80910E0290910F026B
:103B30008C3D23E09207A1F583E08A838AE28983A2
:103B40004FB7F894DE01139620E03EE051E2E32FF8
:103B5000F0E050935700E49120FF03C0E295EF702E
:103B60003F5FEF708E2F90E0EA30C0F0C7968D93E4
:103B70009D932F5F243159F74FBF8091E800877FD5
:103B80008093E8006AE270E0CE0101960E94F3198A
:103B90008091E8008B778093E8004CCFC096E7CF08
:103BA000AE014F5F5F4F609110020E943919BC0156
:103BB000892B09F43FCF9091E800977F9093E8001C
:103BC00089819A810E94521AE3CF803809F032CF5E
:103BD0008091E800877F8093E800809107028093BE
:103BE000F1001DCF811126CF90910E02923008F086
:103BF00021CF8091E800877F8093E80090930702AF
:103C00000E94E61A80910702882331F084E08093B5
:103C10000B020E943D180ECF8091E30087FDF6CF86
:103C200081E0F5CF0895CF9380910B02882399F01E
:103C3000C091E900CF708091EC0080FD0EC080E063
:103C4000C82B1092E9008091E80083FD0E94BE1C01
:103C5000CF70C093E900CF91089580E8F1CF0E9422
:103C6000361E6894B1110C94C51E08950E94AA1EB8
:103C700088F09F5798F0B92F9927B751B0F0E1F02D
:103C8000660F771F881F991F1AF0BA95C9F714C0DD
:103C9000B13091F00E94C41EB1E008950C94C41E8E
:103CA000672F782F8827B85F39F0B93FCCF3869516
:103CB00077956795B395D9F73EF490958095709573
:103CC00061957F4F8F4F9F4F0895E89409C097FBF0
:103CD0003EF490958095709561957F4F8F4F9F4FE3
:103CE0009923A9F0F92F96E9BB279395F695879527
:103CF00077956795B795F111F8CFFAF4BB0F11F4EA
:103D000060FF1BC06F5F7F4F8F4F9F4F16C0882390
:103D100011F096E911C0772321F09EE8872F762FC6
:103D200005C0662371F096E8862F70E060E02AF007
:103D30009A95660F771F881FDAF7880F96958795F3
:103D400097F9089557FD9058440F551F59F05F3F5C
:103D500071F04795880F97FB991F61F09F3F79F0AD
:103D600087950895121613061406551FF2CF46952F
:103D7000F1DF08C0161617061806991FF1CF8695B1
:103D80007105610508940895E894BB276627772795
:103D9000CB0197F908950E94DE1E0C944F1F0E94DC
:103DA000411F38F00E94481F20F0952311F00C9419
:103DB000381F0C943E1F11240C94C51E0E94A21E95
:103DC00070F3959FC1F3950F50E0551F629FF0016E
:103DD000729FBB27F00DB11D639FAA27F00DB11D87
:103DE000AA1F649F6627B00DA11D661F829F222710
:103DF000B00DA11D621F739FB00DA11D621F839F97
:103E0000A00D611D221F749F3327A00D611D231F6C
:103E1000849F600D211D822F762F6A2F11249F57BA
:103E200050409AF0F1F088234AF0EE0FFF1FBB1FBD
:103E3000661F771F881F91505040A9F79E3F51057C
:103E400080F00C94381F0C94C51E5F3FE4F3983E3D
:103E5000D4F3869577956795B795F795E7959F5F26
:103E6000C1F7FE2B880F911D9695879597F90895B8
:103E700097F99F6780E870E060E008959FEF80EC1D
:103E8000089500240A9416161706180609060895C0
:103E900000240A9412161306140605060895092E26
:103EA0000394000C11F4882352F0BB0F40F4BF2B95
:103EB00011F460FF04C06F5F7F4F8F4F9F4F0895D5
:103EC00097FB072E16F4009407D077FD09D00E94C7
:103ED0007A1F07FC05D03EF4909581959F4F089579
:103EE000709561957F4F0895EE0FFF1F0590F49137
:103EF000E02D0994AA1BBB1B51E107C0AA1FBB1FE1
:103F0000A617B70710F0A61BB70B881F991F5A9565
:103F1000A9F780959095BC01CD010895F999FECF40
:103F200092BD81BDF89A992780B50895A8E1B0E0C7
:103F300042E050E00C94B61F262FF999FECF92BDB7
:103F400081BDF89A019700B4021639F01FBA20BD5E
:103F50000FB6F894FA9AF99A0FBE08950196272F92
:103F60000E949D1F0C949C1FDC01CB01FC01F99960
:103F7000FECF06C0F2BDE1BDF89A319600B40D92B5
:0C3F800041505040B8F70895F894FFCF6E
:103F8C00B1012808140A321E4617D817B3177D172B
:103F9C004917013632C63497313335404D3639170F
:103FAC0004CA0394035B03EE0207032003390300E6
:00000001FF
